:020000040800F2
:10000000E8570024AD020008D5720008DD6500083D
:10001000E1710008ED1000083196000800000000B2
:10002000000000000000000000000000DD8C00085F
:10003000ED14000800000000BF7E0008DF8C0008FF
:10004000C7020008C7020008C7020008C70200086C
:10005000C7020008C7020008C7020008C70200085C
:10006000C7020008C7020008C702000821110008E3
:100070002D110008C7020008C7020008C7020008C7
:10008000C7020008C7020008C7020008C70200082C
:10009000C7020008C7020008C7020008C70200081C
:1000A000C7020008C7020008C7020008C70200080C
:1000B000C7020008C7020008C7020008C7020008FC
:1000C000C7020008C7020008C7020008C7020008EC
:1000D000C702000825960008C7020008C7020008EA
:1000E000EF140008C702000800000000C702000863
:1000F000C7020008C7020008C7020008C7020008BC
:10010000C7020008FD800008C7020008C7020008F7
:10011000C7020008C7020008C7020008C70200089B
:10012000C7020008C7020008C7020008C70200088B
:10013000C7020008C7020008C7020008C70200087B
:1001400000000000000000000000000000000000AF
:10015000C7020008C7020008C7020008C70200085B
:10016000C7020008C7020008C7020008C70200084B
:10017000C7020008C7020008C7020008000000000C
:10018000C7020008C7020008C7020008C70200082B
:10019000C7020008C7020008C7020008C70200081B
:1001A000C7020008C7020008C7020008C70200080B
:1001B000C7020008C7020008C7020008C7020008FB
:1001C000C7020008C7020008C7020008C7020008EB
:1001D000C7020008C7020008C7020008C7020008DB
:1001E000C7020008C7020008C7020008C7020008CB
:1001F000C7020008C7020008C7020008C7020008BB
:10020000C7020008C7020008C7020008C7020008AA
:10021000C7020008C7020008C7020008C70200089A
:10022000C7020008C7020008696900080000000052
:10023000C7020008C702000800000000C70200084B
:10024000C7020008C7020008C7020008C70200086A
:10025000C7020008C7020008C7020008C70200085A
:10026000C7020008C7020008C7020008C70200084A
:10027000C7020008C7020008C7020008000000000B
:10028000C7020008C7020008C702000800000000FB
:1002900000000000C7020008DFF80CD000F0FEFBF1
:1002A0000048004789C00008E857002406488047F6
:1002B00006480047FEE7FEE7FEE7FEE7FEE7FEE74B
:1002C000FEE7FEE7FEE7FEE7D18D00089902000891
:1002D0002DE9F05F0546002092469B46884606467B
:1002E000814640241BE0284641464746224600F00E
:1002F000BDF953465A46C01A914110D311461846CB
:10030000224600F0A4F92D1A67EB01084F46224659
:100310000120002100F09BF917EB00094E41201E3F
:10032000A4F10104DFDC484631462A464346BDE8D5
:10033000F09F10B5431A934209D28318881803E03E
:1003400010F8011D03F8011D521EF9D210BD40EA3C
:1003500001039B0703D009E008C9121F08C0042A43
:10036000FAD203E011F8013B00F8013B521EF9D22A
:1003700010BDD2B201E000F8012B491EFBD270473C
:100380000022F6E710B513460A4604461946FFF761
:10039000F0FF204610BD30B505462A460B4612F840
:1003A000010B13F8014B08B1A042F8D01CB1002892
:1003B00002D06D1CF1E7284630BD00000FB400B537
:1003C00089B00BA800906A4603480A9900F0A4F986
:1003D00009B05DF814FB0000000000242DE9FF5F68
:1003E0001D464FF0FF3BD5E9014691465F464FF071
:1003F0000008A9697F1C01988847296A82468847B6
:100400000028F6D1BAF1FF3F0CD024F4C064002ECE
:1004100019DD600614D5BAF12B0F09D0BAF12D0FF2
:100420000ED103E0584604B0BDE8F09F44F4806468
:10043000A9697F1C01988847761E8246002E02DD3E
:10044000BAF1300F03D0B9F1000F26D032E0A9691C
:10045000761E44F400747F1C019888478246002E63
:1004600005DDBAF1780F06D0BAF1580F03D0B9F113
:10047000000F10D01EE0B9F1000F02D0B9F1100F3B
:1004800018D1A969761E24F400747F1C019888474E
:100490008246102002E0082000E00A20814609E0A0
:1004A00008FB0908A969761E44F400747F1C0198B2
:1004B00088478246002E05DD4946504600F0E6F8A2
:1004C0000028EDDAE96901988847A00502D46FF0A9
:1004D0000100A8E7E00725D1600613D5600502D525
:1004E000C8F1000000E0404629680A1D2A6009683A
:1004F000220501D5087015E0220701D5088011E01A
:1005000008600FE02868011D29600068210502D5F8
:1005100080F8008006E0210702D5A0F8008001E005
:10052000C0F8008038467EE72DE9FF5FD2E901A7D9
:100530004FF00008916999461446DDF838B04646F8
:1005400001988847054659EA0B0005D009E0A169E2
:10055000761C019888470546216A28468847002866
:10056000F5D1681C03D05FEACA7005D015E04FF0E2
:10057000FF3004B0BDE8F09F2068011D2160D0F875
:1005800000800AE05FEACA7001D108F8015BA16946
:10059000761C7F1E019888470546002F1ADD681CCF
:1005A00018D0B9F1000F0DD0E81705EBD06042115B
:1005B00020F01F0059F822102A1A01209040014211
:1005C000E0D107E0BBF1000FDCD1216A2846884763
:1005D0000028D7D0E16901988847BBF1000F07D107
:1005E000002E05DD5FEACA7002D1002188F80010F4
:1005F000A068B84203DDBBF1000F03D017B16FF064
:100600000100B6E73046B4E770B506460CF090F846
:10061000046805460A220021304600F045F82C60A7
:1006200070BD30B50B46014600202022012409E0B0
:1006300021FA02F59D4205D303FA02F5491B04FA9B
:1006400002F52844151EA2F10102F1DC30BD202A7A
:1006500004DB203A00FA02F1002070479140C2F119
:10066000200320FA03F3194390407047202A04DB4B
:10067000203A21FA02F00021704721FA02F3D0401B
:10068000C2F1200291400843194670473A2800D22F
:10069000303820F02002412A01D3A2F137008842ED
:1006A00001D34FF0FF3070472DE9F04791460F46D8
:1006B00080460446002614F8015B2DB100F028FAAC
:1006C0000068405DC007F6D12B2D02D02D2D18D02B
:1006D000641E4A463946204600F03CFA27B1396884
:1006E000A14201D1C7F8008071054FF002040BD57B
:1006F0004042002803DD0CF01BF80460A007BDE8B1
:10070000F08746F48066E4E70028F8DA0CF010F889
:1007100004606FF00040F2E7024B9361024BD3613B
:1007200000F00ABAE1B80008DD0A00082DE9FE4F22
:10073000804681EA0300C00F0C46009021F0004182
:1007400023F00045B8EB0200A94105D240462146FE
:1007500090461C460B46024623F00040104347D00B
:10076000270DC7F30A00C3F30A510290401A019003
:1007700040286BDAC3F3130040F4801B00989246C4
:1007800020B10023D2EB030A63EB0B0B019859460F
:10079000C0F140025046FFF75AFF06460D4650464C
:1007A0005946019A00F0A2F910EB080061410024BB
:1007B00087EA115284EAE7731A4340D0009A62B381
:1007C000019A012A4FEA075215DC001B61EB020176
:1007D0004FF0004202EA0752CDE90042001C41F509
:1007E000801132462B4600F013FA03B0BDE8F08FBB
:1007F00040462146F9E7001B61EB0201001C41F570
:10080000801300185B412018A2F5001747EB030185
:1008100040EAD570B6196D4111E06D084FEA360611
:1008200045EAC0754FEA0752001B61EB0201001C4C
:1008300041F5801149084FEA300000195141324614
:100840002B4603B0BDE8F04F00F0D3B90098012269
:1008500040000023D0EB020263EBE07300982146D6
:100860004FEAE074B8EB000061EB0401E9E783F0C4
:1008700000435BE781F0004158E72DE9FE4F81EA34
:10088000030404F0004421F0004100944FF0000BF9
:1008900023F0004350EA01045ED052EA03045BD027
:1008A000C3F30A54C1F30A552C44A4F2F33401945F
:1008B000A0FB0254C1F3130141F48011C3F31303ED
:1008C00043F4801301FB024400FB034E840A970AA1
:1008D00044EA815447EA8357A4FB076802958D0ACE
:1008E00005FB07854FEA932C04FB0C542705029D5A
:1008F0004FEA065847EA1637B5EB08056EEB070CCA
:10090000870E920E47EA811742EA8312A7FB020183
:10091000B6EB0B0164EB00042B0D43EA0C335E18BD
:1009200044EB1C50DA465146E7FB0201C5F31304C1
:100930004FEA0B3343EA14534FEA0432019C43EA73
:100940000603A4F10C040294009CCDE900B400F06D
:100950005FF903B0BDE8F08F00200146F9E72DE90B
:10096000F04D81EA030404F0004B21F000451446E9
:100970004FF0000A23F0004150EA050220D054EA6B
:1009800001021DD0C5F30A570246C5F31303C1F394
:100990001300C1F30A5640F4801543F48013A7EB0B
:1009A0000608101BD64608F2FD3873EB050002D38B
:1009B00008F1010801E092185B41B8F1000F03DA79
:1009C00000200146BDE8F08D00204FF4801106465E
:1009D00084460EE0171B73EB050705D3121B63EB70
:1009E000050306434CEA010C49084FEA300092180F
:1009F0005B4150EA0107EDD152EA030012D082EACE
:100A0000040083EA0501084305D0101BAB4106D260
:100A10000122002306E000224FF0004302E06FF0C5
:100A2000010253101AEB06004CEB085110EB0A00C0
:100A300041EB0B01BDE8F04D00F0DBB8C1F30A5209
:100A4000C1F3130140F2FF3341F480119A4202DAFC
:100A500000200146704740F233439A42A2F23342EB
:100A600002DC5242FFF702BEFFF7F1BD30B5041EB3
:100A700071F1000404DB4FF00044404264EB0101DB
:100A8000141E73F1000405DB1C464FF00043524274
:100A900063EB0403994208BF904230BD064C074DFA
:100AA00006E0E06840F0010394E80700984710343E
:100AB000AC42F6D3FFF7F4FBF8E1000818E20008B7
:100AC000094910B508784C1C18B1401E0870205C0C
:100AD00010BD00210720ABBE207010BD0249087870
:100AE000421C0A707047000014000024202A06DB14
:100AF000CB17203A41FA02F043EAE07306E041FAEC
:100B000002F3D040C2F120029140084319467047D9
:100B10000048704724D2000810B50446FFF7F8FFDC
:100B20000068005D00F0010010BD00000268114483
:100B30001378016018467047D16004495161044937
:100B4000116200211161114600F0B0B82D0B0008B0
:100B5000190B00082DE9F05F824600780027154642
:100B60008B460AF10104B946302801D09DB113E04B
:100B700014F8010B0127782803D0582801D045B17B
:100B80000AE00DB1102D07D10027102514F8010B34
:100B900002E0082500E00A250026B0460EE005FB2D
:100BA000080005FB06F1012701EB10461FFA80F84B
:100BB000B6F5803F00D3B94614F8010B2946FFF77C
:100BC00065FD0028EBDABBF1000F05D00FB1641E04
:100BD00000E05446CBF80040B9F1000F06D00BF00E
:100BE000A7FD02210160C81EBDE8F09F48EA06404B
:100BF000FAE710B5141E73F1000408DA401C41F145
:100C0000000192185B411A4301D120F0010010BD90
:100C10002DE9F04D92469B4611B1B1FA81F202E006
:100C2000B0FA80F220329046FFF711FD04460F46DD
:100C300040EA0A0041EA0B0153465A46084313D0E2
:100C4000114653EA010019D0C8F140025046FFF79F
:100C50000DFD05460E46504659464246FFF7F7FC45
:100C6000084305D0012004E020463946BDE8F08D58
:100C70000020054346EAE0762C4337430A98630593
:100C8000E40AA0EB08000022FD0A44EA47540A30B7
:100C900002D500200146E9E7010510196941DDE9A7
:100CA000084500196941BDE8F04DA2E72DE9F34F71
:100CB0008BB04FF0000801F10C000C464FF0010B17
:100CC00046460DF1080A019062690121019890479A
:100CD000051E2DD0252D2CD0216A8847C0B1626910
:100CE000012101989047216A88470028F7D1411EC9
:100CF00062690198904700E0761CA1690B988847CB
:100D0000216A88470028F7D1E1690B988847DBE71B
:100D1000A1690B9888470746A84201D1761CD3E702
:100D2000E1690B9888477F1C02D1B8F1000F6FD0A2
:100D300046E1002762693D463946019890472A28D6
:100D400004D162690121019890470125DFF884925E
:100D50006269012101989047A0F130010A290AD265
:100D60004F45E5DC07EB870100EB4107303FDFD45F
:100D700045F01005ECE7E90601D46FF000476C2858
:100D80000AD04C2814D0682815D06A280DD07428B1
:100D90001CD07A281AD01DE0626901210198904781
:100DA0006C2802D045F0040514E045F002050DE082
:100DB00045F020050AE06269012101989047682802
:100DC00002D045F0080505E045F40065626901219F
:100DD00001989047C4E9015765283DD019DC58288F
:100DE0007AD00CDC452837D004DC252826D04128D1
:100DF00031D131E046282FD047282CD12CE05B2878
:100E000077D0612828D063287CD0642823D15AE089
:100E1000D0E06F2848D008DC66281DD067281BD09A
:100E2000692821D06E2816D127E0702845D0732874
:100E300068D0752847D078280DD14DE0A1690B986E
:100E40008847054625283FF469AFE1690B98884734
:100E50006D1C3FF46AAFB3E023466A466FF00100B1
:100E60000B99AFF300809EE045F040006060A8075A
:100E700023464FF0000236D43EE0E8077FF447AF48
:100E80002068011D21600068290501D506701BE757
:100E9000290701D5068017E7A90703D5F117C0E98F
:100EA000006111E706600FE745F040006060A807A9
:100EB00023464FF0080216D41EE040F60E0125EA44
:100EC0000100606016E045F040006060A80723461E
:100ED0004FF00A0207D40FE045F040006060A80719
:100EE00008D5234610226FF001000B99AFF3008064
:100EF00059E007E0234610226FF001000B99FFF73D
:100F00006DFA50E04FF000094F464B46632802D07F
:100F10005B2806D040E0E80601D40120A06001274C
:100F20003AE062690121019890475E2805D14FF0AF
:100F300001096269494601989047216939B9002140
:100F40000A46534643F82120491C0829FADBB0B36E
:100F5000216969B9C11700EBD16253110AEB830112
:100F600022F01F02821A01200B68904003430B609D
:100F700062690121019890475D28E8D1B9F1000F1D
:100F800009D00020514651F82020D24341F82020BA
:100F9000401C0828F7DB02AB224600976FF00100E7
:100FA0000B99FFF7C1FA00280CDA401C08D1BBF1FD
:100FB000000F05D04FF0FF300DB0BDE8F08FFFE718
:100FC0004046F9E7E90701D108F1010806444FF06E
:100FD000000B79E6CCCCCC0C0146404804F0C6B9F5
:100FE00080B53E4804F0D2F9043818BF012080BD16
:100FF00080B500F013F801281CBF022080BD3748DF
:1010000004F086FB00B180BD34484FF4804104F009
:1010100043F8002818BF012080BD00BF81B0012027
:101020008DF803009DF8030001B070472DE9F843E7
:10103000804629488E46734606F012FB9E4609EA12
:10104000441315460E4645EA030705F14045013EA7
:10105000C0F8EC71F7D1631E002C1C46EFD1BFF332
:101060004F8F1E48414672466346BFF36F8F04F0B0
:101070002FFD002818BF0120BDE8F8830148012199
:1010800001607047200300242DE9F8438046124890
:101090008E46734606F0E4FA9E4609EA4413154666
:1010A0000E4645EA030705F14045013EC0F8EC71E4
:1010B000F7D1631E002C1C46EFD1BFF34F8F0748BA
:1010C000414672466346BFF36F8F04F051FD00281E
:1010D00018BF0120BDE8F88380ED00E0C4090024BA
:1010E000014801210160704788070024FEE710B520
:1010F000044600F00DF8204601F054FEBDE8104013
:10110000AFF3008005484FF48051002201F055BF35
:1011100002484FF48051012201F04FBF00000258F5
:10112000014801F0DBB800BF9C070024014801F032
:10113000D5B800BF1408002410B50168234A9142B5
:1011400023D0234A91421CBF224A91421DD0224AF9
:1011500091421CBF214A914217D0214A91421CBFA3
:10116000204A914211D0204A91421CBF1F4A91420D
:101170000BD01F4A91421CBF1E4A914205D01E4A05
:1011800091421CBF1D4A914214D16FF00F021823E7
:101190001EA452FA81F2B2FBF3F303F00703E35CFF
:1011A000C36540F2FF3399435F2A88BF04318165EC
:1011B000084610BD124A9142E7D0124A9142E4D04B
:1011C000114A9142E1D021F0FF01F0E71000024006
:1011D00028000240400002405800024070000240D7
:1011E00088000240A0000240B80002401004024003
:1011F00028040240400402405804024070040240A7
:1012000088040240B8040240A00402400006101600
:101210000006101610B50168AC4A91420BD0AC4ADA
:1012200091421CBFAB4A914205D0AB4A91421CBFD0
:10123000AA4A914214D16FF00702174B52FA81F17A
:101240001422B1FBF2F203F1800103EB820302F0FE
:101250001F020124C0E9183104FA02F2826610BDAF
:101260009F4A9142E7D09F4A9142E4D09E4A9142E0
:10127000E1D06FF00F021823084C52FA81F2A1421C
:10128000B2FBF3F31A4688BF0832AA34A14228BF42
:101290001A46034BD7E700BF005802580F0402401C
:1012A0000008024070B501794A1E072A1AD8144B6B
:1012B0000568864E03F14404B5420BD0844EB54216
:1012C0001CBF844EB54205D0834EB5421CBF834E31
:1012D000B54208D1012503EB8101C0E91B1405FAD1
:1012E00002F2426770BD7E4EB542F3D07E4EB542EB
:1012F000F0D07C4EB5421CBF024B03F14404E9E739
:10130000FC580258FC080240F0B5964604685F4A53
:10131000D0F858C094423BD05D4FBC421CBF5D4FDB
:10132000BC4235D05C4FBC421CBF5C4FBC422FD08E
:101330005B4FBC421CBF5B4FBC4229D05A4FBC42E2
:101340001CBF5A4FBC4223D0594FBC421CBF594FFF
:10135000BC421DD0584FBC421CBF584FBC4217D096
:10136000574FBC421CBF574FBC4211D0564FBC42D6
:101370001CBF564FBC420BD0554FBC421CBF554FF3
:10138000BC4205D0544FBC421CBF544FBC4267D135
:10139000C66ED0E919757D6016B1D0E91C566E6035
:1013A000944229D03A4A94421CBF3A4A944223D0EC
:1013B000394A94421CBF394A94421DD0384A94425B
:1013C0001CBF384A944217D0374A94421CBF374A50
:1013D000944211D0364A94421CBF364A94420BD0F4
:1013E000354A94421CBF354A944205D0344A94424F
:1013F0001CBF344A944217D18268C06D3F2500F06B
:101400001F0005FA00F0CCF80800206820F48020C6
:101410002060402A636003D1C4F808E0E160F0BDB9
:10142000A160C4F80CE0F0BD2E4A94421CBF274ACC
:1014300094420BD0264A94421CBF264A944205D0BF
:10144000254A94421CBF254A944214D18268C06D3B
:10145000012500F01F0005FA00F0CCF80400D8E7E1
:101460001F4FBC4294D01F4FBC4291D01E4FBC4274
:101470003FF48EAFD7E71A4A9442E7D01A4A944213
:10148000E4D0114A9442B7D0CDE700BF100002402B
:101490002800024040000240580002407000024014
:1014A00088000240A0000240B80002401004024040
:1014B00028040240400402405804024070040240E4
:1014C00088040240A0040240B804024008540258B4
:1014D0001C5402583054025844540258585402586C
:1014E0006C540258945402588054025870474FF478
:1014F000006001F08DBCEFF3108072B6FEE70022B1
:10150000AFF30080B0B50D4C0346607A08B10120FE
:10151000B0BD657A00206055657A04EB85056B6087
:10152000637A23441A72627A531C63723032C87031
:101530000A7042F63A73A1F80130B0BD900700245A
:1015400070B50B680268D3B101F11C0522F4F842B2
:1015500001F10C0638CD1A4347F6FF7322432A43A4
:10156000026001F1100550F8042F9A434B6842EADB
:10157000030401F1180201F11403083112E00E1DF9
:1015800047F6FF739A4378CE1A4301F120032243B2
:101590002A4301F11C0542EA060401F1240201F18B
:1015A0001806143109681B68126821433468214306
:1015B0002C682143194311430160002070BD42692A
:1015C00043F6FE739A4342EA4101416100207047AD
:1015D000B0B591E81C006FF01F05C96805EB441415
:1015E00005696FF315052A431A43224342EA412154
:1015F00001610020B0BD0000F0B5034653F8084F6C
:101600001AB3CB68254D244A264F22404C6905EB7E
:1016100003331A43224B03EB04531A43826050F8FE
:101620000C3F0A698D68D1E9004603F07043013C24
:1016300007EB02426FF0FF071C43034607EB05254B
:101640006FF00F0707EB06161BE091E865006FF0DF
:101650000F0704F07044013807EB021220431043D7
:101660006FF0FF0202EB05220E4D40EA02044869CA
:101670000B4A02EB0052086905EB0045074800EBF6
:10168000063644EA0600896928430139104340EAD6
:10169000016018600020F0BDFF0F0FFF00F0FFFF9A
:1016A0000000F0FF0000FFFF2DE9F04FD5B000274C
:1016B000DFF814B102AC45A549A60FF27C18022F41
:1016C0001ED05BF82700214609F034FF88B102469E
:1016D000042859D15BF8271030460BF005F85BF869
:1016E000270009F019F95BF82710002850D140466F
:1016F00002E05BF8271028460AF0F6FF0137DEE724
:101700004FF00008DFF848A10DF59174514D02AE7D
:10171000DFF84891524FB8F1030F3BD05AF8283008
:10172000DBF80020204629460AF0EEFF204631462D
:1017300009F000FF10B3024604282DD1484605F0F9
:10174000F1FF384621460A2209F0B0FC50BB46485A
:1017500005F0E8FFB8F1020F0CD1384643A1092289
:1017600001AB09F09DFF30BB0198092823D1434804
:1017700005F0D8FF384609F009F802E0364805F0D0
:10178000D1FF08F10108C6E75BF827102F4806E0F3
:1017900020A00AE000200BE039480DF591710AF015
:1017A000A3FF04E02F480DF591710AF09DFF012081
:1017B00055B0BDE8F08F30480DF591710AF094FFF7
:1017C000274808F0E3FFF2E764000024466F6C64EA
:1017D0006572202573206578697374732E0A000082
:1017E0005761726E696E673A2043616E6E6F742046
:1017F00066696E6420666F6C6465722025732C20A8
:101800006372656174696E67206F6E65202E2E2E7F
:101810000A0000004572726F723A2043616E6E6F6B
:10182000742063726561746520666F6C64657220F4
:1018300025732E0A00000000466F6C646572202537
:101840007320637265617465642E0A0057DE0008B8
:101850005400002427DF0008EEDE0008FFDD00084A
:101860005805002493DE000881DE00084C415354E3
:10187000203D20300A000000B2DE0008D3DE000860
:101880002FDE000810B5ADF50C7D04460EA005F066
:1018900096FF68462146002209F008FC28B96846F0
:1018A00008F074FF0FA00BF069FC204609F0A7FEBA
:1018B00020B1014610A00AF017FF02E018A00BF0BB
:1018C0005DFC0DF50C7D10BD0D0A2A2A2A20446509
:1018D0006C6574652046696C653A2025732A2A2A4E
:1018E0000D0A00004F70656E207375636365737336
:1018F00066756C6C79210D0046696C652064656CB9
:101900006574696F6E206661696C65642C20657210
:10191000726F7220636F64653A2025640D0A0000BF
:101920005468652066696C65207761732064656C16
:1019300065746564207375636365737366756C6C39
:1019400079210D00FEB501A91EA002AA08F041FFF1
:1019500008B11DA033E021480BF010FC0298214D86
:10196000019F0178468984691D48A8471E480BF0ED
:1019700005FC1E48A8471EA04FF40071A847029816
:1019800041891D48A84702988069811E1B48A847C5
:10199000A01E00FB06F41A482146A847E10A620D82
:1019A0001848A847019918A0A84707FB06F41DA0EE
:1019B0002146A847E10A620D21A0A84729A00BF003
:1019C000DDFBFEBD303A0000665F676574667265D8
:1019D000652829206572726F720D000039DB0008DE
:1019E000EFDB0008E9C600087CDB0008D9DB000853
:1019F00025640D0A000000009BDA000802DB0008E5
:101A00001EDB000879DA00084672656520636C7594
:101A10007374657220636F756E74203D20256C644D
:101A20000D0A00004672656520736563746F72204D
:101A3000636F756E74203D20256C640D0A000000F4
:101A400046726565207370616365203D20256C6476
:101A5000284D4229203D20256C64284742290D0A43
:101A60000000000047657420464154206469736B90
:101A700020696E666F204F4B0D000000B0B5C6B0F8
:101A8000054614A029460AF02FFE6C46284621463A
:101A900009F050FD042814D00146B0B9009916A0F1
:101AA0001C4DA8479DF808101BA0A84704F116017B
:101AB0001FA0A847BDF80610BDF8040000F054F8B8
:101AC00006E00C480BF05AFB02E01EA00AF00CFEE8
:101AD00046B0B0BD0D0A2A2A2A2046696C652069E5
:101AE0006E666F206F663A202573202A2A2A0D0A17
:101AF00000000000A2DB000846696C652073697A6B
:101B00006528627974657329203D20256C640D0A6F
:101B100000000000E9C6000846696C652061747425
:101B2000726962757465203D20307825780D0A0051
:101B300046696C65204E616D65203D2025730D0A58
:101B400000000000665F737461742829206572725A
:101B50006F722C206572726F7220636F64653A2019
:101B600025640D0A0000000010B50C4640F2BC715F
:101B7000C0F3431200F01F0301EB502106A00AF04E
:101B8000B3FDE10AC4F3451204F01F0308A0BDE849
:101B900010400AF0A9BD00BF46696C6520646174FD
:101BA00065203D2025642F25642F25640D0A000043
:101BB00046696C652074696D65203D2025643A2571
:101BC000643A25640D0A000070B5ADF5267D044623
:101BD00015A005F0F4FD1AA82146012209F066FAC5
:101BE000042811D0014688B901AC1AAD18A61D9879
:101BF000209981420ED0204664212A4608F061FED9
:101C0000304605F0DCFDF2E7104804E012A00AF0CF
:101C10006BFD02E00FA00BF0B1FA1AA808F0B6FDB8
:101C20000DF5267D70BD00BF0D0A2A2A2A205265B7
:101C30006164696E67205458542066696C653A2067
:101C40002573202A2A2A0D0A00000000A2DB0008C2
:101C5000257300000D000000665F6F70656E282917
:101C6000206572726F722C206572726F7220636FC2
:101C700064653A2025640D0A000000002DE9F0415A
:101C8000D4B0044647A8214609F02AFB40B10546D6
:101C900047A808F08FFD15A029460AF025FD21E090
:101CA0001CA005F08CFD01AC47AE0FF28C0825A7F7
:101CB00004F116053046214609F014FC60B99DF880
:101CC0001A0048B19DF80C002946C006384658BF96
:101CD00040460AF009FDEDE71DA00BF04FFA47A8BA
:101CE00008F068FD54B0BDE8F08100BF0D0A665FE2
:101CF0006F70656E6469722829206572726F722C2C
:101D0000206572726F7220636F64653A2025640DDE
:101D10000A0000000D0A2A2A2A20416C6C20656EF8
:101D2000747269657320696E206469723A20257344
:101D3000202A2A2A0D0A000046494C453A202573DC
:101D40000D0A00004449523A2025730D0A00000094
:101D50005363616E20646972204F4B0D00000000D8
:101D6000B0B5ADF5127D044611A005F028FD06A81A
:101D700021460A2209F09AF910B1014615A00EE099
:101D80001D48009001AF1CA0051D406905902ECD97
:101D900068462EC706A909F0E7FA1DA021460AF0F9
:101DA000A3FC06A808F0F2FC0DF5127DB0BD00BF43
:101DB0000D0A2A2A2A204372656174696E672054CD
:101DC00058542066696C653A202573202A2A2A0D0A
:101DD0000A0000004F70656E2066696C65206572B0
:101DE000726F722C206572726F7220636F64653A35
:101DF0002025640D0A0000004C696E65313A2048C8
:101E0000656C6C6F2C2046617446732A2A2A0A007E
:101E100057726974652066696C65204F4B3A2025BE
:101E2000730D0A00F8B5044601F0D2F8002C00F05A
:101E30009080054694F83500022840F08C80276891
:101E4000A44EB74224D0A44887421CBFA34887426F
:101E50001ED0A34887421CBFA248874218D0A24880
:101E600087421CBFA148874212D0A14887421CBFAD
:101E7000A04887420CD0A04887421CBF9F48874299
:101E800006D09F4887421CBF9E48874240F0E780AB
:101E9000386820F01E01384640F8141B6FF08001AE
:101EA000026811400160B7423CD08B4887421CBF9A
:101EB0008A48874236D0F44887421CBFF34887429D
:101EC00030D0F34887421CBFF24887422AD0F248FC
:101ED00087421CBFF148874224D0F14887421CBF8B
:101EE000F04887421ED0F04887421CBFEF48874227
:101EF00018D0EF4887421CBFEF48874212D0ED4808
:101F000087421CBFED4887420CD0ED4887421CBF7A
:101F1000EC48874206D0EC4887421CBFEB4887421A
:101F200040F0C080206E016821F480710160386843
:101F300020F0010038603868C00710D001F048F880
:101F4000401B0628F7D320206065032084F8350065
:101F500003E00120F8BD8020606501207CE020685E
:101F6000B04223D0C64988421CBFC64988421DD012
:101F7000C54988421CBFC549884217D0C449884218
:101F80001CBFC449884211D0C34988421CBFC34901
:101F900088420BD0C24988421CBFC249884205D042
:101FA000C14988421CBFC149884268D1D4E9161290
:101FB0003F2302F01F0203FA02F28A60B0423BD0D4
:101FC000AF4988421CBFAF49884235D0AE498842EC
:101FD0001CBFAE4988422FD0AD4988421CBFAD49D5
:101FE000884229D0AC4988421CBFAC49884223D0E2
:101FF000AB4988421CBFAB4988421DD0AA498842E0
:102000001CBFAA49884217D0A94988421CBFAA49C7
:10201000884211D0A74988421CBFA84988420BD0EA
:10202000A74988421CBFA749884205D0A6498842D3
:102030001CBFA649884242D1E06ED4E919124A6019
:1020400030B1016821F480710160D4E91C01416064
:10205000012084F83500002005F0CAFCF8BD944842
:1020600087423FF415AF934887423FF411AF92483F
:1020700087423FF40DAF6FF00E01384610E78C49F0
:10208000884293D08B49884290D08B4988423FF454
:102090008DAFD4E91612012302F01F0203FA02F2F7
:1020A0004A608BE78A4887423FF43CAF89488742C1
:1020B0003FF438AF884887423FF434AF37E784496C
:1020C0008842B9D083498842B6D083498842B3D088
:1020D000BEE700BF1000024028000240400002405E
:1020E000580002407000024088000240A0000240F8
:1020F000B80002401004024028040240400402409C
:102100005804024070040240B0B500285CD090F83A
:102110003510022956D10168584A914223D0584BB4
:1021200099421CBF574B99421DD0574B99421CBF37
:10213000564B994217D0564B99421CBF554B99426A
:1021400011D0554B99421CBF544B99420BD0544B64
:1021500099421CBF534B994205D0534B99421CBF27
:10216000524B994233D1042380F83530914223D029
:10217000434881421CBF434881421DD042488142AE
:102180001CBF4248814217D0414881421CBF414890
:10219000814211D0404881421CBF404881420BD04F
:1021A0003F4881421CBF3F48814205D03E488142A2
:1021B0001CBF3E4881424DD1086820F001000860F4
:1021C000002102E08021416501210846B0BD384B65
:1021D0009942C8D0374B9942C5D0374B9942C2D0AB
:1021E0000A6822F00E020A600A6822F001020A6000
:1021F000324A91420BD0324A91421CBF314A91423D
:1022000005D0314A91421CBF304A91422BD100F196
:1022100058041ECC1D6825F480751D6002F01F0255
:10222000012303FA02F24A60816E6160C16E31B12E
:102230000A6822F480720A60D0E91C124A60002108
:1022400080F83410012280F83520026D002ABCD0BD
:102250009047B5E716488142AED016488142ABD0D0
:1022600015488142A8E71A4A9142D0D0194A9142B2
:10227000CDD0194A9142CAD0E1E700BF1000024018
:102280002800024040000240580002407000024016
:1022900088000240A0000240B80002401004024042
:1022A00028040240400402405804024070040240E6
:1022B00088040240B8040240A004024008540258B6
:1022C0001C5402583054025844540258585402586E
:1022D0006C54025894540258805402582DE9FC4121
:1022E000044600200190D54FDFF8DC04A66DD0F83D
:1022F0000080206835683168B8422AD0D04A9042C0
:102300001CBFD04A904224D0CF4A90421CBFCF4A33
:1023100090421ED0CE4A90421CBFCE4A904218D066
:10232000CD4A90421CBFCD4A904212D0CC4A904236
:102330001CBFCC4A90420CD0CB4A90421CBFCB4A27
:10234000904206D0CA4A90421CBFCA4A904240F00E
:102350009381E16D082201F01F018A402A4235D0A5
:102360000423BC46B84224D0B54FB8421CBFB54F79
:10237000B8421ED0B44FB8421CBFB44FB84218D0B8
:10238000B34FB8421CBFB34FB84212D0B24FB8429D
:102390001CBFB24FB8420CD0B14FB8421CBFB14FB6
:1023A000B84206D0B04FB8421CBFB04FB84240F060
:1023B000988107681F42674608D0036823F004032A
:1023C0000360B260626D42F00102626501228A40E0
:1023D0002A422ED0B84224D0994B98421CBF994B28
:1023E00098421ED0984B98421CBF984B984218D0E8
:1023F000974B98421CBF974B984212D0964B9842ED
:102400001CBF964B98420CD0954B98421CBF954BE5
:10241000984206D0944B98421CBF944B984240F08F
:102420006D8143691B0604D5B260626D42F0020201
:10243000626504228A402A422ED0B84224D0804BC2
:1024400098421CBF7F4B98421ED07F4B98421CBFC6
:102450007E4B984218D07E4B98421CBF7D4B9842D1
:1024600012D07D4B98421CBF7C4B98420CD07C4BC9
:1024700098421CBF7B4B984206D07B4B98421CBFB6
:102480007A4B984240F0488103689B0704D5B260BC
:10249000626D42F004026265102202FA01F12942E3
:1024A0003ED00822B84224D0C84B98421CBFC84B2B
:1024B00098421ED0C74B98421CBFC74B984218D0B9
:1024C000C64B98421CBFC64B984212D0C54B98428F
:1024D0001CBFC54B98420CD0C44B98421CBFC44B88
:1024E000984206D0C34B98421CBFC34B984240F061
:1024F00021810368134213D0B1600268016852035E
:1025000006D4C90506D4016821F00801016001E084
:10251000080301D4216C00E0A16C09B12046884772
:10252000E06D00F01F01202000FA01F22A425BD08A
:1025300020681023B84224D0A44DA8421CBFA44D4B
:10254000A8421ED0A34DA8421CBFA34DA84218D03C
:10255000A24DA8421CBFA24DA84212D0A14DA84234
:102560001CBFA14DA8420CD0A04DA8421CBFA04D3D
:10257000A84206D09F4DA8421CBF9F4DA84240F0E4
:10258000E68005681D422FD0B26094F835300268AD
:10259000042B15D122F016020260426922F080025B
:1025A0004261226C0AB9A26C1AB1026822F00802D8
:1025B00002603F208840B06005F0C4F8216D37E02C
:1025C0000168520308D4C9050AD4016821F010013A
:1025D000016005F0B7F803E0080301D4616C00E086
:1025E000E16B09B120468847606D20B3606DC0077C
:1025F0001DD04FF41650B8FBF0F1042084F83500DC
:102600002068026822F001020260019A0132019200
:102610008A4202D80268D207F7D105F0E9F90068CA
:10262000C0074FF0030008BF012084F83500E16CBB
:1026300009B120468847BDE8FC8100BF1000024078
:102640002800024040000240580002407000024052
:1026500088000240A0000240B8000240100402407E
:102660002804024040040240580402407004024022
:1026700088040240A0040240624A90421CBF624AA1
:1026800090420CD0614A90421CBF614A904206D0F1
:10269000604A90421CBF604A904240F08780E26DE1
:1026A00002F01F03042202FA03F502680D4201D072
:1026B000570759D402259D400D4201D097075DD49C
:1026C000D9400907B7D51107B5D5016821F00E012A
:1026D0000160012000FA03F17160606505F088F97E
:1026E000A3E7464FB8423FF464AE454FB8423FF4CB
:1026F00060AE4A4FB84218BF08235AE63F4B984293
:102700003FF48FAE3E4B98423FF48BAE434B984222
:102710003FF487AE02688CE6384B98423FF4B4AE83
:10272000374B98423FF4B0AE3C4B98423FF4ACAECE
:102730000268B1E6314B98423FF4DBAE304B984231
:102740003FF4D7AE354B984218BF0422D1E62B4D4B
:10275000A8423FF416AF2A4DA8423FF412AF2F4DC6
:10276000A84218BF02230CE71104756012D4910629
:1027700014D4016821F0040101600FE011047560B8
:102780000ED4910610D4016821F00A01016004F012
:10279000D9FF09E0D00301D4A16C49E7216C47E7D8
:1027A000D00301D4616C43E7E16B41E7EB4A90420F
:1027B0003FF475AFEA4A90423FF471AFE94988426D
:1027C0003FF4C7AD37E700BF4800002428000240AF
:1027D0004000024058000240700002408800024061
:1027E000A0000240B8000240100402402804024049
:1027F0004004024058040240700402408804024031
:10280000A004024094540258085402581C54025820
:10281000305402584454025858540258B8040240E4
:102820002DE9F843044600F0D3FB002C7ED005468A
:102830002068BB4FB8422AD0BA4988421CBFBA4967
:10284000884224D0B94988421CBFB94988421ED069
:10285000B84988421CBFB849884218D0B749884255
:102860001CBFB749884212D0B64988421CBFB6493E
:1028700088420CD0B54988421CBFB549884206D071
:10288000B44988421CBFB449884240F0EC80022120
:1028900084F8351005F0ACF8016821F00101016001
:1028A0000168C90706D000F093FB401B052838D803
:1028B0002068F5E70168AD4AB946D4E90257D4E982
:1028C00006C301EA0208D4E90462D4E9081E45EA15
:1028D00008053D4335432A4342EA0C021A4311439B
:1028E000BEF1040F03D1D4E90B2311431943A04ACD
:1028F0001268B2F1005F1CD365684F46A5F129024A
:10290000062A0BD3A5F13F02042A07D3A5F14702FB
:10291000022A03D3A5F14F02032A0BD841F48011F8
:1029200008E020206065032084F835000120BDE820
:10293000F8834F460160BEF1040F416921F00701A1
:1029400041EA0E0128D1D4E90A53294323B3BCF547
:10295000005F08D0BCF1000F11D1022D12D0012D63
:1029600007D07DB118E0032D16D8DFE805F00E0B77
:102970000E02A3F1C072B2FA82F2520904E0032DF2
:1029800003D309D1C3F3006232B140206065012056
:1029900084F83500BDE8F883416105F0F5F905F0EC
:1029A0001DF92068B8423BD0E74988421CBFE7497F
:1029B000884235D0E64988421CBFE64988422FD07C
:1029C000E54988421CBFE549884229D0E44988424C
:1029D0001CBFE449884223D0E34988421CBFE34935
:1029E00088421DD0E24988421CBFE249884217D084
:1029F000E14988421CBFE249884211D0DF49884240
:102A00001CBFE04988420BD0DF4988421CBFDF4928
:102A1000884205D0DE4988421CBFDE49884272D117
:102A20002046FEF7F7FBA06804F16003802806BF8C
:102A3000002060606068C5B20ECB013807280D60C9
:102A4000536005D82046FEF72DFC05F0F5F903E0AC
:102A50000020C4E91B00606700206065012184F844
:102A60003510BDE8F883CD4988421CBFC54988426E
:102A70000BD0C54988421CBFC449884205D0C4490F
:102A800088421CBFC349884231D1022184F83510E5
:102A9000142204F1080504F0ABFF33490144B1FBF3
:102AA000F2F18900E1652ECD06686FF3101646EA53
:102AB000D202A1F18006B6FA86F67609B60340295D
:102AC00008BF102642EA0601A26941EAD30141EAA1
:102AD000D50141EAD201E26941EAD201226A41EA22
:102AE0001211016005F050F905F011F859E7AA49F3
:102AF0008842CAD0AA498842C7D0A04988423FF438
:102B0000C6AE40200EE7A44988423FF489AFA349EE
:102B100088423FF485AFA24988423FF481AF9BE7EA
:102B200010000240280002404000024058000240CD
:102B30007000024088000240A0000240B80002403D
:102B4000100402402804024040040240580402409D
:102B50007004024088040240A00402406C540258F1
:102B600080540258B8040240F8ABFDA73F8010FE25
:102B70000010005CB0B5002800F0B58004F074FED1
:102B800004BF0220B0BD04F048FE40F0AA8004F06B
:102B90001AFD20686B49884224D06B4A90421CBFC2
:102BA0006A4A90421ED06A4A90421CBF694A9042CB
:102BB00018D0694A90421CBF684A904212D0684AB5
:102BC00090421CBF674A90420CD0674A90421CBF9B
:102BD000664A904206D0664A90421CBF654A9042BF
:102BE00040F0838002680B2363F344020260226C8E
:102BF0001AB1026842F00802026088423BD0524A91
:102C000090421CBF514A904235D0514A90421CBF5D
:102C1000504A90422FD0504A90421CBF4F4A904297
:102C200029D04F4A90421CBF4E4A904223D04E4A70
:102C300090421CBF4D4A90421DD04D4A90421CBF4D
:102C40004C4A904217D04C4A90421CBF4C4A90428A
:102C500011D04A4A90421CBF4A4A90420BD04A4A7D
:102C600090421CBF494A904205D0494A90421CBF3D
:102C7000484A90425BD1226E1368DB0303D5136888
:102C800043F480731360E26E1AB1136843F48073E7
:102C90001360884223D02C4988421CBF2B498842AC
:102CA0001DD02B4988421CBF2A49884217D02A4987
:102CB00088421CBF2949884211D0294988421CBF3B
:102CC000284988420BD0284988421CBF274988429E
:102CD00005D0274988421CBF264988421ED104F0EE
:102CE000F5BF05F07AF80120B0BD234A90423FF4C9
:102CF00079AF224A90423FF475AF214A90423FF4A7
:102D000071AF0268052363F343020260226C002A5C
:102D10003FF473AF026842F004026DE7164988423F
:102D2000DDD016498842DAD015498842D7E71A4AD9
:102D30009042A0D0194A90429DD0194A90429AD010
:102D4000CDE700BF100002402800024040000240D2
:102D5000580002407000024088000240A00002407B
:102D6000B80002401004024028040240400402401F
:102D7000580402407004024088040240B804024033
:102D8000A0040240085402581C54025830540258FF
:102D900044540258585402586C54025894540258DF
:102DA00080540258B0B5044600F012F905460548B3
:102DB000611C007818BF044400F00AF9401BA042CF
:102DC000FAD3B0BD4000002410B504460A20FFF736
:102DD000E9FF0D484FF4006100F0EAF8B4F5006F28
:102DE00008BF00280CD101200021012203F006FDBC
:102DF000C820FEF77CF900200021002203F0FEFC31
:102E000002480121016010BD000002588C07002417
:102E100003490A68024208BF70470860FFF7D4BF41
:102E2000880000582DE9FC4F5C4A0A244FF0000A44
:102E30004FF0000990425A4A08BF092402444FEA61
:102E4000B223092B38BF4FEAB224009400220E6847
:102E500036FA02F700F0A080012303FA02F716EA1F
:102E6000070B00F09380D1F804E003230EF0030C6D
:102E7000ACF10105012D13D803FA09F58468CB687C
:102E8000AC4303FA09F36FEA050823438360CEF3EA
:102E900000134468BC4393405700234343600BE056
:102EA00003FA09F3BCF1030F4F466FEA030803D19D
:102EB0004F464FF0030C20E0C3688C6803EA080318
:102EC000BC402343C360BCF1020F16D10AF01C03BF
:102ED0000F2404FA03FC6FF0030404EA52050544CE
:102EE0002C6A24EA0C0C0C6904FA03F343EA0C0381
:102EF0002B62D1F804E00EF0030C04680CFA07F31F
:102F000004EA0804234303601EF4403F3ED0264CED
:102F1000264E236843F00203236023680F2403F046
:102F200002030193019D0AF00C0322F003059C406B
:102F3000AF5927EA0404009F07FA03F32343AB5178
:102F40004FF0B04633684D6843EA0B04EF0258BFB8
:102F500023EA0B043460134EAF02336843EA0B04D8
:102F600058BF23EA0B043460AF03D6F8803043EA3D
:102F70000B0458BF23EA0B04C6F88040ED03F36F3F
:102F800043EA0B0458BF23EA0B04F4670AF1040A6E
:102F900009F1020901325AE7BDE8FC8F002402580A
:102FA0000000FEA704000058F4440258080400582A
:102FB0000069084018BF01207047002A08BF0904B3
:102FC0008161704701480068000C70470010005C88
:102FD00001480068704700BFE00F002490F84120CE
:102FE000202A03D190F84020012A01D1022111E0CA
:102FF000242280F841200268136823F00103136043
:10300000136823F48053136013681943734604F064
:10301000EFFA9E460846704790F84120202A03D1D7
:1030200090F84020012A01D1022110E0242280F8EA
:1030300041200268136823F001031360136823F42E
:10304000706343EA0121734604F0D2FA9E460846B3
:103050007047000000B3B0B5044690F8410018B9BD
:1030600004F00EFF00F058F9242084F84100D4E960
:103070000003D4E9021223F07063012A056825F0E9
:10308000010505600361836823F40043836005D173
:1030900041F4004181600AE001207047022A41F4B6
:1030A0000441816003D1416841F4006102E041685C
:1030B00021F4006141600F4A04F110054168114399
:1030C0004160C16821F40041C1602ECD114341EA45
:1030D0000321C160216A29430160016841F00101B7
:1030E000016000206064202184F84110206384F88E
:1030F0004200B0BD008000022DE9F84F04F02CFB27
:103100000CD1DDF828B0BBF1000F09D0DDF82C8020
:10311000B8F1000F04D004F0DFFD07D1022502E072
:1031200004F015FE01252846BDE8F88F04F097FD50
:1031300004F062FC0028F6D1222084F841000C99AA
:103140000025F2B2002304F0B5FC2F488346A0F519
:103150008060009004F068FB04F091FD50B9012EEE
:1031600002D004F084FD28B904F055FE402104F09B
:10317000D8FB10B184F84050D4E704F00CFC06D31F
:10318000FF202085CDF800B004F087FD07E0608DBA
:1031900051464FF000732085CDF800B0C2B204F064
:1031A00043FB0025FF26204604210022434604F06D
:1031B000B8FB0028B6D104F090FB15D1A0B1204691
:1031C00080210022434604F0ACFB0028AAD104F081
:1031D000E2FB05D326850095204604F05EFD01E064
:1031E00004F052FD03F07EFA608D0028DBD120460A
:1031F000414604F0E2FD002894D1206820210025FA
:10320000444B04F036FB8EE7002400802DE9F84F94
:1032100004F0A2FA0CD1DDF828B0BBF1000F09D000
:10322000DDF82C80B8F1000F04D004F055FD07D173
:10323000022502E004F08BFD01252846BDE8F88F49
:1032400004F00DFD04F0D8FB0028F6D104F072FD67
:103250000C990025F2B24FF0807304F02BFC2C483F
:10326000009004F0E1FA04F00AFD50B9012E02D0FA
:1032700004F0FDFC28B904F0CEFD802104F051FBE0
:1032800010B184F84050D7E704F085FB06D3FF2047
:10329000208504F002FD0020009007E0608D0021F1
:1032A0004FF00073208500915146C2B204F0BCFA81
:1032B0000025FF2604F0E3FC0028BDD104F03DFB0F
:1032C00015D1A0B1204680210022434604F029FBFD
:1032D0000028B1D104F05FFB05D326850095204678
:1032E00004F0DBFC01E004F0CFFC03F0FBF9608D9F
:1032F0000028DFD12046414604F05FFD00289BD125
:10330000206820210025034B04F0B3FA95E700BFA5
:103310000020008000E800FE2DE9F043B7B004462D
:1033200032A81421FDF72CF802A8C021FDF728F8D7
:1033300020683B4988422BD03A4988426DD1082009
:10334000002403940290239402A800F0B5FC08B175
:10335000FEF7D1F8344D286840F002002860286854
:1033600000F002000190CDE9344404203690122090
:103370003390C0203290019832A92C48FFF752FDBB
:10338000A86840F40010A860A86800F4001042E0AB
:103390000820002603960290239602A800F08CFCD9
:1033A00008B1FEF7A8F8204F4FF004084FF01209BB
:1033B0001E4C386840F080003860386800F08000AB
:1033C00001900198386840F002003860386800F0D9
:1033D00002000190CDF8D880CDE93466CDF8CC90CC
:1033E00010203290019832AD04F5C0502946FFF705
:1033F00019FD4FF4006032902946CDE93568CDE9DA
:1034000033962046FFF70EFDB86840F48000B860A0
:10341000B86800F480000190019837B0BDE8F083EF
:103420000058004000540040E04402580004025894
:103430002948034900780A6810440860704700BFB3
:10344000E00F002480B5032000F0DCF901F058F90A
:103450000E490F4B0A68096801F00F01C2F30322FD
:10346000595C9A5C01F01F0102F01F02D040834AB0
:103470001060C840074908600E2000F00DF808B140
:10348000012080BD00F084F9002080BD184402585E
:1034900050D200084C00002470B50F4E044630781E
:1034A000B0B14FF47A71B1FBF0F074490968B1FB27
:1034B000F0F002F01BFD01250F2C0AD848B94FF09F
:1034C000FF3021460022002500F080F9746000E002
:1034D0000125284670BD00BF4000002410B528B16A
:1034E00090F83C30012B03D1022119E0012117E0B3
:1034F00090F83D30012B0AD103681C69640006D4A2
:1035000019635A631A6921B142F0004103E00121B5
:1035100003E022F0004119610021002280F83C20E4
:10352000084610BDBCB5044600200190534805680C
:103530004FF0A4400168206800F5F862C2F38412DD
:10354000D140C90700F099800168C90729D0C16836
:10355000890726D5C16821F00201C16081680A0689
:103560004FF0020258BF0122A36E1A43A2668A05D9
:1035700003D5A26E42F00402A266CA0503D5A26E6C
:1035800042F00802A2664A0503D5A26E42F010027C
:10359000A266090503D5A16E41F02001A1660121B3
:1035A00041600168C90609D5C168890606D51021A0
:1035B0004160A16C11B12046884720680168090765
:1035C00009D5C168C90606D508214160E16C11B171
:1035D0002046884720680168490709D5C16809075E
:1035E00006D504214160216D11B12046884720682D
:1035F000016889071CD5C168490719D5C16821F040
:103600003E01C16094F83D10042906D1012084F8E0
:103610003D0003F0E5FFA16D2CE00221416003F0C5
:10362000DFFF012084F83D00616C09B12046884726
:10363000A06E10B34FF41650B5FBF0F1042084F8DF
:103640003D002068C26822F00102C260019A013286
:1036500001928A4202D8C268D207F7D1002184F8C9
:103660003C10C068C0074FF0030008BF012084F879
:103670003D00616D09B120468847BCBD480000246B
:10368000F8B50446FFF7A4FCA4B10546022084F86F
:103690003D0003F0A5FF2068C16821F00101C16071
:1036A000C168C90708D0FFF793FC401B052837D82D
:1036B0002068F5E70120F8BDD4E9033504F12407BB
:1036C000D4E901CE24492B43C360E8CF01EB854107
:1036D000D4E905522A43E5692A43256A2A431A4355
:1036E00032433A4342EA0E0211430161BCF1804F7A
:1036F00003D1016941F04041016100214161626BE8
:10370000B2F1FF3F04DC4169524241F48021416142
:1037100091B20162A26BB2F1FF3F05DD12040AE033
:1037200001200322402113E0416941F4002141615D
:103730000021A1EB0242016A1143016201225FFAFA
:103740008CF181620021C4E9171161664162002099
:10375000A16684F83D20F8BD0000FCFF0B48BFF3D4
:103760005F8F016821F4803101600021016770479B
:10377000064940F001000867086840F4803008609E
:10378000BFF34F8FBFF36F8F704700BF24ED00E092
:1037900081B00648016841F002010160006800F054
:1037A00002000090009801B0704700BFF444025836
:1037B000002808D400F01F010122400902FA01F19B
:1037C000014A42F82010704700E100E070B5134B49
:1037D0004FF0FF351B68C3F30223DC1E83F00703A1
:1037E00038BF002405FA04F6B243042B28BF042393
:1037F00005FA03F39943A1401143BDE8704005F079
:1038000019BF00BF05494FF6FF030A681A4060F36D
:103810000A22034810430860704700BF0CED00E027
:103820000000FA05B0B50F4D2A682968520705D483
:1038300001F00701081A18BF0120B0BD21F00701EF
:10384000084303F086FF044655F8080C800406D4AC
:10385000FFF7BEFB03F0C8FEF6D90120B0BD002083
:10386000B0BD00BF0C48025880B500F013FF0249FC
:10387000024A04F05AB800BF2044025850D200084F
:10388000B0B51D498B6A8A6ACC6A4D6BC2F30512CA
:103890006AB104F0010403F0DCFF0CD0012B0DD061
:1038A00013B90B689B060CD49FED161A13E0002188
:1038B000C0E900111DE09FED121A0CE09FED0F1AF8
:1038C00009E00B68104CC3F3C10324FA03F301EEC3
:1038D000103AB8EE411A0B6B9FED0C3A04F070FAF7
:1038E0000A6B03F059FE0A6B04F0E1F9096B04F06E
:1038F00066F98160B0BD00BF004402580024744ADC
:1039000020BCBE4B0024744C0090D0030000003952
:10391000B0B51C498B6A8A6ACC6ACD6BC2F305329A
:10392000B2B1C4F3001403F094FF15D0BBB90B6817
:103930009B0651BF9FED161A0B68C3F3C103154CCC
:1039400042BF24FA03F301EE103AB8EE411A08E040
:103950000021C0E9001112E09FED0C1A01E09FED7B
:103960000A1A8B6B9FED0C3A04F02AFA8A6B03F06B
:1039700013FE8A6B04F09BF9896B04F020F98160D7
:10398000B0BD00BF004402580024744A20BCBE4BA6
:103990000024744C0090D00300000039B0B51C49DD
:1039A0008B6A8A6ACC6A4D6CC2F30552B2B1C4F319
:1039B000002403F04EFF15D0BBB90B689B0651BF26
:1039C0009FED161A0B68C3F3C103154C42BF24FACE
:1039D00003F301EE103AB8EE411A08E00021C0E905
:1039E000001112E09FED0C1A01E09FED0A1A0B6C1A
:1039F0009FED0C3A04F0E4F90A6C03F0CDFD0A6C7B
:103A000004F055F9096C04F0DAF88160B0BD00BF2C
:103A1000004402580024744A20BCBE4B0024744C5D
:103A20000090D00300000039F8B580F400220A436A
:103A300000F07F8080F400720A4332D080F480620C
:103A40000A4300F0878080F400620A4338D080F493
:103A500080520A4300F08B8080F400520A4300F049
:103A6000948080F480420A4337D080F400420A43B5
:103A700042D080F480320A434ED080F480700843F4
:103A800040F0DF808749086D00F00702042A00F249
:103A9000D8808848DFE812F0770087008E00D600D3
:103AA00096008049086DC0F38212042A00F2C98092
:103AB0008048DFE812F0680078007F00C7008700C8
:103AC0007849886DC0F30262042A00F2BA8079480E
:103AD000DFE802F0596970B878007248816DC1F36F
:103AE0000271052900F2AD80DFE801F003869198AC
:103AF000A28DFFF7B9FEA5E06A48016D01F04051C3
:103B0000B1F1005F00F07880B1F1805F00F0968045
:103B1000002940F0968076E06248C16C0068C903D5
:103B200040F18D80000140F18C8001A8FFF7F0FE8C
:103B3000A1E05C48816D01F44031B1F5003F00F037
:103B40008880B1F5803F00F09080002940F07980B6
:103B5000006829E05349886DC0F34252042A00F2FC
:103B600070805448DFE802F00F1F266E2E004D498A
:103B7000086DC0F30232042A63D84E48DFE802F031
:103B800003131A622200086859E04648016DC1F328
:103B90000241052955D8DFE801F0032F3A414B36A1
:103BA00000F096FD4EE0086800014AD501A8FFF735
:103BB000AFFE05E00868800043D501A8FFF7EEFEE0
:103BC00001983FE0C86C0B6810F04052086802D1C1
:103BD00013F0040326D1B2F1805F02D110F480709B
:103BE00051D1086810F400301CBF47F64000C0F205
:103BF0007D10B2F1005F52E00068000121D501A8FC
:103C0000FFF786FE23E000682749800313E0006881
:103C1000800016D501A8FFF7C1FE18E0016849072A
:103C20000FD50068C0F3C100214921FA00F009E076
:103C300000681E49C00501EAE07003E000688001E9
:103C400002D4002004B080BD01A8FFF719FE02983D
:103C5000F8E7C16C0368026811F040510DD113F010
:103C600004030AD0C2F3C100DEE700688000E8D593
:103C700001A8FFF793FE0398E4E7B1F1805F04D158
:103C800012F4807201D00948DCE7006810F40030BB
:103C90001CBF47F64000C0F27D10B1F1005F18BFB5
:103CA0000020CFE70044025840787D0100093D0024
:103CB0000090D0030080BB002DE9F0470446C07897
:103CC000A74F00071CD5A06E4FEA3051032908D832
:103CD000DFE801F002090C11F96941F40031F961E2
:103CE00009E001260DE003F0E5FD01E003F00AFF25
:103CF000064630B9A06E396C21F44011084338648F
:103D000000266078BA46C00701D1354620E0A06D94
:103D100004280BD83546DFE800F0030C0F12120020
:103D2000F869354640F40030F86108E001250127C4
:103D30000FE003F002FD01E003F06AFD05462F46A7
:103D40003DB9A06D03F0E8FD21F0070103F038FE56
:103D50003746607880071ED5E06D4FEAB010042822
:103D600007D8DFE800F003090C0F0F0003F038FE5E
:103D700008E0012501260FE003F0DFFC01E003F07D
:103D800047FD05462E463DB9E06D03F0C5FD21F423
:103D9000E07103F015FE3E466078400702D4B0465D
:103DA000574623E0D4F8A80057464FEA705004283D
:103DB00007D8DFE800F0030A0D10100003F0FBFD48
:103DC00009E001254FF0010810E003F0B6FC01E026
:103DD00003F01EFD0546A84645B9D4F8A800B96C05
:103DE0000025B04621F460010843B86460780007FC
:103DF00020D5D4F8AC004FEA3060042807D8DFE8BB
:103E000000F003090C0F0F0003F0D5FD08E00125B9
:103E1000012710E003F091FC01E003F0F9FC0546F6
:103E20002F4645B9D4F8AC0003F052FD21F0E06113
:103E300003F0ADFD4746E07880071DD5E06C4FEA02
:103E40003010032806D8DFE800F00B02080B03F05F
:103E5000C7FD05E0012501260FE003F02BFD054617
:103E60002E4655B9E06CDAF83C100025524621F098
:103E700030010843CAF83C003E466078C0061ED5B3
:103E8000206E4FEA3030042807D8DFE800F003093D
:103E90000C0F0F0003F0A4FD08E0012501270FE03F
:103EA00003F04BFC01E003F0B3FC05462F463DB99F
:103EB000206E03F031FD21F4E04103F081FD37462F
:103EC000607880061BD5606E4FEA3040052807D821
:103ED000DFE800F00C03090C0C0C03F0D6FF04E043
:103EE000012501260CE003F0A2FF05462E463DB950
:103EF000606E03F011FD21F4E02103F061FD3E4608
:103F0000607840061DD5D4F8B0004FEA307005281F
:103F100007D8DFE800F00C03090C0C0C03F0B5FF28
:103F200004E0012501270DE003F081FF05462F463F
:103F300045B9D4F8B00003F0CBFC21F0E04103F028
:103F400026FD37466078000618D5206F68B1B0F1BD
:103F5000005F07D0B0F1805F22D103F041FD04E0A3
:103F60001044025803F091FF05462E463DB9206FDC
:103F700003F0D2FC21F0405103F022FD3E46E078F0
:103F8000C00702D1B04657461EE0A06C5746032832
:103F900009D8DFE800F00F020C0F03F00CFD09E078
:103FA00001250126EBE701254FF001080CE003F0A5
:103FB00081FC0546A8463DB9A06CF96B0025B046CA
:103FC00021F003010843F863A078400601D4474676
:103FD00016E0D7F8F00340F48070C7F8F003FEF75E
:103FE000F7FF0646D7F8F003C00507D4FEF7F0FF49
:103FF000801B6428F6D90325032701E02F467DB1F5
:104000002078C00747D0E06F4FEAF000052832D88B
:10401000DFE800F037033437373703F036FF2FE09F
:10402000DAF86010D4F8B4005546414011F4407FEE
:104030000BD0296E2A6E42F480322A6621F4407138
:104040002A6E22F480322A662966B0F5807F40F01D
:104050000382FEF7BDFF064641F288390327DAF8EE
:104060006000800700F1F581FEF7B2FF801B032599
:104070004845F4D9C4E7012501260DE003F0D7FE39
:1040800005462E4645B9E06F03F073FC21F0380178
:104090000843CAF844003E46207880071AD5A06F2E
:1040A000052807D8DFE800F00C03090C0C0C03F01E
:1040B000ECFE04E0012501270DE003F0B8FE054603
:1040C0002F4645B9A06F03F054FC21F007010843C7
:1040D000CAF844003746207840071BD5D4F894002E
:1040E000052807D8DFE800F00C03090C0C0C03F0DE
:1040F000CCFE04E0012501260DE003F098FE054604
:104100002E4645B9D4F8940003F0E2FB21F00701F4
:1041100003F03DFC3E46207880061ED5D4F8900082
:104120004FEA3070052807D8DFE800F00C03090CCF
:104130000C0C03F002FB04E0012501270EE003F064
:10414000E1FC05462F464DB9D4F8900003F011FC70
:1041500021F0E0410843CAF8440037462078400681
:104160001DD5D4F89C004FEAB020052807D8DFE819
:1041700000F00C03090C0C0C03F0DFFA04E001253D
:1041800001260DE003F0BEFC05462E4645B9D4F8E5
:104190009C0003F09DFB21F4E05103F0F8FB3E4648
:1041A000207800061DD5D4F8A0004FEA703005280D
:1041B00007D8DFE800F00C03090C0C0C03F0BDFA83
:1041C00004E0012501270DE003F09CFC05462F4685
:1041D00045B9D4F8A00003F07BFB21F4604103F063
:1041E000D6FB37462068010714D5D4F88410B1F502
:1041F000805F07D103F086FC002818BF01272068E4
:10420000D4F88410DAF84420534622F44052114383
:10421000CAF84410C10614D5D4F89810B1F5807FBF
:1042200007D103F06FFC002818BF01272068D4F8DD
:104230009810DAF84820534622F440721143CAF825
:104240004810000318D5D4F8A400B0F5003F09D0F9
:10425000B0F5803F03D010BB03F06FFA01E003F02C
:1042600051FC05462E4645B9D4F8A40003F030FBB6
:1042700021F4403103F08BFB3E46A07840071FD568
:10428000D4F88800B0F5401F0FD0B0F5001F09D05A
:10429000B0F5801F40F0D88003F0A2FB05E00125B7
:1042A0000126EAE703F0C3FD05462F464DB9D4F8D1
:1042B000880003F05EFB21F440110843CAF8440073
:1042C0003746A078C00701D13E4619E0206DB0F511
:1042D000803F03D090B903F083FB02E003F0EAFAD9
:1042E00005462E4665B9206DDAF83C100025524689
:1042F00021F480310843CAF83C00E5E70125012696
:104300002168880001D4606806E003F0FBFB002808
:1043100018BF0126D4E900108A031BD5D4F88020E9
:104320006FF0010303EB3223022B0BD34FEA32234E
:1043300043B1012B40F08B80DAF81C3043F400339A
:10434000CAF81C303DB9DAF8443023F440731A43FC
:10435000CAF844203546CA0207D5626FDAF8403001
:1043600023F000431A43CAF84020CA0008D5D4F805
:10437000B820DAF8003023F480431A43CAF800204A
:104380008A0207D5E26EDAF8403023F080731A43D0
:10439000CAF840204A000CD5DAF8002022F4004286
:1043A000CAF80020D4F8BC20DAF800301A43CAF862
:1043B0000020B1F1FF3F07DC626DDAF83C3023F0FA
:1043C00040531A43CAF83C20090208D5D4F88C108F
:1043D000DAF8442022F440021143CAF84410C1071D
:1043E00005D003F0AAF9002818BF054660688107C8
:1043F00005D503F04AFD002818BF0546606841074F
:1044000005D503F057FA002818BF05466068010774
:1044100005D503F0FDF9002818BF05466068C10600
:1044200005D503F004FD002818BF05466068800626
:1044300004D503F067FB002818BF0125002D18BF25
:1044400001252846BDE8F0870125012739E7012528
:1044500081E75546D4F8B4002A68094900F440734E
:1044600022F47C5201EA1011B3F5407F6FF31F3044
:1044700008BF0A432A60296E084328660025A6E57E
:10448000CFFFFF002DE9F843002800F0FB807F4DAF
:1044900004468846286800F00F0088420BD228683E
:1044A00020F00F0040EA08002860286800F00F00A4
:1044B000404540F0E7802068C64F410709D5216993
:1044C000BA6903F078FB04D9BA6922F0700211438B
:1044D000B961010709D56169FA6903F06CFB04D978
:1044E000FA6922F070021143F961C1060AD5A16987
:1044F000FA6902F4E062914204D9FA6922F4E062B6
:104500001143F961810609D5E1693A6A03F053FB69
:1045100004D93A6A22F070021143396210F00201A4
:104520000AD0E268BB6903F00F039A4204D9BB6961
:1045300023F00F031A43BA61C2073AD0D4E901014C
:10454000BA6922F470621143B961012807D00328C7
:1045500009D002280BD1396889030CD492E039685C
:10456000C90508D48EE03968890104D48AE0396825
:10457000490740F187803969A94621F007010843BE
:104580003861FEF725FD064641F2883560683969D5
:1045900001F03801B1EBC00F07D0FEF719FD801B09
:1045A000A842F3D90320BDE8F88320684D4600F007
:1045B000020151B1E168BA6902F00F02914204D2DE
:1045C000BA6922F00F021143B961296801F00F01A5
:1045D00041450AD9296821F00F0141EA0801296003
:1045E000296801F00F0141454CD1410709D52169E6
:1045F000BA6903F0E0FA04D2BA6922F070021143FA
:10460000B961010709D56169FA6903F0D4FA04D2E6
:10461000FA6922F070021143F961C1060AD5A16955
:10462000FA6902F4E062914204D2FA6922F4E0628B
:104630001143F96180060AD5E069396A01F0700119
:10464000884204D2396A21F070010843386200F0D0
:1046500057F8B969294A1C4BC1F30321515C01F099
:104660001F01C840B969186001F00F01515C01F0E9
:104670001F01C8401549086005480068BDE8F843B7
:10468000FEF70ABF0120BDE8F88300BF00200052FA
:104690004400002480B500F033F80A49174B0A683B
:1046A000096801F00F01C2F30322595C9A5C01F022
:1046B0001F0102F01F02D040034A1060C8400349A6
:1046C000086080BD18440258480000244C000024B3
:1046D00080B5FFF7DFFF0849084A0968C1F30211F6
:1046E00003F0E0BA80B5FFF7D5FF0349034A096834
:1046F000C1F3022103F0D6BA1C44025850D200087C
:1047000010B534490869C0F3C20003280FD002284D
:1047100004BF324810BD40B908688006334858D5F8
:104720000968C1F3C101C84010BD2B4810BD8A6A99
:10473000886ACB6A4C6BC0F30510F0B103F001033B
:10474000C4F3CC0402F003026343022A00EE103AE1
:10475000B8EE400A13D0AAB90A68920651BF9FED7D
:10476000221A0A68C2F3C102204B42BF23FA02F2A6
:1047700001EE102AB8EE411A06E0002010BD9FEDB0
:10478000191A01E09FED161A0A6B9FED193A6FF3A3
:104790005F2202EE102AB8EE422A00EE032AB7EE9C
:1047A000000A32EE000A02EE100A086BC0F346203F
:1047B000B8EE422A013081EE021A21EE000A01EE23
:1047C000100AB8EE411A80EE010ABCEEC00A10EEE3
:1047D000100A10BD0044025800093D0040787D01D8
:1047E0000024744A20BCBE4B0024744C0090D003BB
:1047F00000000039F8B5002800F03F810446007839
:10480000D74EC0071FD12078800740F19C803069C7
:1048100010F03801B06A35D0182901D1800731D0A5
:104820003068E168002955D020F01900084302F0F3
:10483000B0FE0546306840073BD4FEF7C9FB401B7D
:104840000228F7D951E1306900F03801B06A102927
:1048500005D018290AD100F00300022806D13068DB
:104860008003D0D560680028CDD106E160680028BB
:104870003ED0B0F5A02F4BD0B0F5803F4CD003F028
:10488000A7F84CE0E0683168490702D5002800F03D
:10489000F480316821F01901084302F07AFE0546E0
:1048A0003068400705D4FEF793FB02F042FFF7D9CA
:1048B000F8BDFEF787FB41F2030188423CD820692E
:1048C000716821F47C31402814BF41EA003041F482
:1048D000003037E020F0010002F05BFE0546306852
:1048E000400730D5FEF774FB02F023FFF7D9DFE76E
:1048F00003F06EF802F04DFE0546306880037FF548
:1049000082AFFEF765FB411B03206429F5D9CFE791
:10491000306840F480203060306840F4803002F02D
:1049200038FE0546306880033FF56DAFFEF750FB5B
:10493000401B6428F6D9D8E02069716821F0FE4157
:1049400041EA006070602078C0063ED5306900F012
:104950003801B06A082905D018291CD100F00300DD
:10496000012818D13068C00503D5E069802840F0DF
:104970008480FEF727FB41F2030188421ED8206A9B
:10498000716821F0F841202814BF41EA806041F0AD
:104990008040706019E03068E169002900F0D08043
:1049A00040F0800002F0F5FD05463068C005E0D417
:1049B000FEF70EFB02F0BDFEF7D979E7206AF16839
:1049C00021F07C5141EA0060F0602078000756D465
:1049D0002078800665D42078400774D4676A002F59
:1049E00049D0306900F03800182840F0BB80B16A27
:1049F000306B012F41D0A26A01F0030393423CD1F6
:104A0000E26AC1F30511914237D10146226B6FF37F
:104A10005F21013A914230D1626BC0F34621013AE5
:104A200091422AD1A26BC0F30641013A914224D1AE
:104A3000E16BC0F30660013988421ED1A06C716B36
:104A4000C1F3CC01884216D0F06A20F00100F06278
:104A5000FEF7BEFA0546FEF7BBFAA842FBD0706B24
:104A60004FF6F8718843A16C40EAC1007063F06AA8
:104A700040F00100F0620020F8BD0120F8BD706F29
:104A80006169A1B340F001007067FEF7A1FA054625
:104A9000706F80079CD4FEF79BFA401B0228F7D961
:104AA00023E03068A169E1B340F4805002F071FD69
:104AB0000546306880043FF58EAFFEF789FA401B4B
:104AC0000228F6D911E0D6F8000440F48070C6F848
:104AD0000004FEF77DFA0546D6F80004C00516D49A
:104AE000FEF776FA401B6428F6D90320F8BD20F0C3
:104AF00001007067FEF76CFA0546706F80077FF55E
:104B000067AFFEF765FA02F014FEF6D9D0E6A068AA
:104B1000002842D0052853D0012855D002F0EAFFE2
:104B200055E020F4805002F034FD054630688004E2
:104B30007FF551AFFEF74CFA02F0FBFDF6D9B7E670
:104B400020F0800002F025FD05463068C0057FF5A5
:104B50003CAFFEF73DFA02F0ECFDF6D9A8E600BF47
:104B600000440258306820F0807002F012FD0546C3
:104B7000022F08D1306880013AD5FEF729FA02F0F9
:104B8000D8FDF7D994E6306880017FF574AFFEF761
:104B90001FFA02F0CEFDF6D98AE602F0ABFF3067CD
:104BA000FEF716FA054641F28837306F80077FF529
:104BB00015AFFEF70DFA411B0320B942F5D977E690
:104BC000306F40F004003067306F40F00100306714
:104BD000FEF7FEF9054641F28837306F80073FF552
:104BE000FDAEFEF7F5F9411B0320B942F5D95FE6AA
:104BF00004F12805B06A40F2F33188432ECD084312
:104C0000591E40EA0210B0626FF35F214FF4FE02BA
:104C10004FF47E4000EB452080B20844A16B02EBCC
:104C200001414FF0FE4201F4FE010844E16B02EB4A
:104C3000016101F0FE41084430634FF6F871F06AFB
:104C400020F00100F062706B8843A16C40EAC10063
:104C50007063206CF16A21F00C010843F062F06A85
:104C6000616C20F002000843F062F06A40F480308A
:104C7000F062F06A40F40030F062F06A40F48020A4
:104C8000F062F06A40F00100F062306840F080703D
:104C900002F07FFC0446306880013FF5ECAEFEF781
:104CA00097F9011B03200229F5D901E670B5E8B395
:104CB000044690F8210028B9002084F820002046FE
:104CC00000F038F8022084F821002068C168C90685
:104CD00027D4CA21416203F087F8F0B994E80F00A5
:104CE000134E85683540856025692943A5692943A8
:104CF00085682943816043EA0241016102F0FDFDBC
:104D000058B920686169E2691143C36C23F0030359
:104D1000C364C26C1143C164002002F0D0FD00D016
:104D200070BD012084F82100002070BD012070BDFD
:104D3000BFFF8FFF10B5B0B004466846B8210830F9
:104D4000FBF71EFB20680C49884212D1002001901D
:104D50004FF4800000904FF400702D906846FEF7ED
:104D6000ABFF08B1FCF7C7FB0448016841F4004100
:104D7000016030B010BD00BF0040005870440258C0
:104D80002DE9F04102F0EDFC3ED084F82100012035
:104D900084F8200032B16878E978AE78000240EA01
:104DA000014714E06E78F00604D506F0EF0000F13C
:104DB0000A066E70E878DFF8F480C0470746304690
:104DC000C047000240EA0747A878C0470646206867
:104DD000CA2141625321416220462D7803F044F9F3
:104DE00048B947EA0600216820F0C00040EA453093
:104DF000486002F082FD02F062FD02D1012184F8D8
:104E00002110002184F82010BDE8F0812DE9F04147
:104E100002F0A7FC47D084F82100CA21164620687A
:104E20004162012184F8201002F0DEFF90BB276868
:104E3000B86800F040001EB198B90020E87012E098
:104E400008B90020E8702878DFF86080C04706467F
:104E50006878C04702F0F7FFE978304440EA8150B3
:104E600009E0E87880056A782978AB78120242EA8E
:104E70000141194408430E4908403860B86820F4DD
:104E80008020B860D5E903010843B9680843B860D9
:104E900002F033FD02F013FD02D1012184F821104C
:104EA000002184F82010BDE8F08100BF4580000893
:104EB0007F7F7F00B0B5044600680949C160FEF7F6
:104EC00087F805462068C068800606D4FEF780F89B
:104ED00002F006FFF6D90320B0BD0020B0BD00BF30
:104EE0005FFF0300704770477047704708B3B0B565
:104EF000044690F82C000D4628B9002084F82D00B7
:104F0000204600F01BF8022084F82C00211D2068A8
:104F1000FCF716FBD4E900022946FCF76DFB0648B6
:104F2000016841F000410160012084F82C0000205C
:104F3000B0BD0120704700BF004000522DE9F0478E
:104F4000B8B033A81421FBF71BFA354801780029C3
:104F500062D10121017002AC04F10800B821FBF715
:104F60000FFA4FF0807002904FF00008CDF80C80DF
:104F7000CDF850802046FEF79FFE08B1FCF7BBFA43
:104F800028484FF00C094FF0030A0227264C274E01
:104F9000016841F480510160006800F48050019084
:104FA000CDF8DC90CDE9358A34974FF63F00339049
:104FB000019833AD04F500602946B047CDF8DC9088
:104FC00034A8294680E880052C20339004F58050D1
:104FD000B047CDF8DC9034A8294680E8800548F237
:104FE0003710339004F54060B047CDF8DC9034A81A
:104FF000294680E880054FF68370339004F5806081
:10500000B047CDF8DC9034A8294680E880054CF202
:10501000037033902046B04738B0BDE8F08700BF3A
:10502000A0000024D4440258000C0258252E000889
:10503000B0B5054602F07DFD01D102240DE095F8E2
:105040002C000124012808D1022085F82C002868B2
:10505000FCF7B5FA85F82C4000242046B0BDB0B569
:10506000044690F82C000D46052803D0022812D0E3
:1050700001280FD1022084F82C0029462068FCF773
:10508000A7FA286802280CBF0520012084F82C000C
:105090000020B0BD0120B0BD2DE9FF410446032032
:1050A0000D4684F83000A06B03280BD14FF08050E0
:1050B000616BAD4E08436063606B00B3206886632C
:1050C000012577E0002D40D0B5F5004FEED0B5F5C5
:1050D000804F4BD102F0ABFB80014AD402A920469D
:1050E00003F02EFC0028E3D19DF80E0040073AD5CE
:1050F00002F030FD0028DBD12068022172E04FF47D
:1051000080300021FEF790FCD8B13849D4E904C7BB
:10511000B0FBF1F38846D4E901129F4243D2B64670
:10512000A66DB6F5007F3DD0B6F5807F24D1304B1B
:1051300067B37E00B0FBF6F6464588BFB0FBF3F7D9
:1051400030E002F06AFC6063BAE702F070FB8001B5
:105150000FD402A9204603F0F3FB0028A8D19DF844
:105160000E00C00737D14FF08060A1E74FF000601C
:105170009EE74FF400609BE77FB17E00B0FBF6F046
:105180001C4EB042764688BF1F460CE0002776468C
:10519000404588BFB0FBF3F705E0164EB04298BF1C
:1051A00000231F46764620682B46CDE900C703F052
:1051B00081FA0025206802F024FD28B1216801252C
:1051C0008E63616B08436063012084F830002846D9
:1051D00004B0BDE8F08102F0BDFC00287FF468AFA8
:1051E0002068002102F0C6FF62E700BF80F0FA02EB
:1051F00000E1F50540787D0170470000B0B5D0E9C9
:105200001742836BA50F0D70C4F383654D70C4F313
:1052100001658D70250CCD70250A0D714C71140D32
:10522000CC80C2F303440C72C2F3C0344C72C2F39C
:1052300080348C72C2F34034CC72C2F300340C73ED
:1052400000244C73012B30D0002B40F0818040F6BD
:10525000FC73012503EA8202436E42EA93720A61FB
:10526000426EC2F3C2630B75C2F302634B75C2F3A5
:1052700042538B75C2F38243CB75C2F3C2330B76B4
:105280004FF4007343650B690C7E013304F007048F
:105290000234A34083640C7A04F00F0405FA04F48A
:1052A000C464640A6343036512E002F03F02B0F88D
:1052B000663043EA02420A614FF480634FF40072A1
:1052C0004265C2640A6903EB822202658264426E0F
:1052D000C2F380334B76C2F3C6138B7602F07F02A3
:1052E000CA76806EC20F0A77C0F341724A77C0F364
:1052F0000043C0F382628A77C0F38352CA77C0F357
:10530000405281F82020002281F8212081F82230AB
:10531000C0F3C03381F82330C0F3803381F82430E8
:10532000C0F3403381F82530C0F3003381F82630D4
:10533000C0F3812381F82730C0F30123C0B281F884
:105340002830400881F82900012081F82A0009E06E
:105350000168764A8A630122416B41F080514163C2
:1053600080F830201046B0BDFF0FE01FB0B500F14F
:1053700038053CCD81E83C00826C0A61C26C4A6110
:10538000026D406DC8618A610020B0BD10B5044651
:105390000068616C090402F0AEFF20B1616B084344
:1053A0006063002010BD206802F078FBC0F343204A
:1053B00010BD00002DE9F04397B0044690F830008E
:1053C000032801D101253DE00D46FDF701FE804691
:1053D000206802F063FB8001544E20D420684021F5
:1053E00002F0B5FEB8B902F0B5FBA0B901201690E5
:1053F00000201590022014906020139040201290FD
:105400004FF0FF301190206811A903F001F82068D7
:1054100002F099FFD0B10146606B606301E04FF488
:105420000061206801258663626B1143616384F823
:10543000305002F0E6FB28B1216801258E636063DD
:1054400084F83050284617B0BDE8F08301AFB1466C
:105450002068426B416B12F4957F14D1080409D582
:105460000026202E04D002F035FBB8510436F8E7B0
:1054700037444E46FDF7ACFDA0EB08004FF000416D
:105480000130E5D1CDE7090714D4416B890713D466
:10549000416B890612D4416BC90411D503F020F980
:1054A0003860FDF795FDA0EB080001303AD0206888
:1054B0000437F0E70821B4E70221B2E72021B0E782
:1054C00092498163DDE9011CDDE90336CFB2BA09F7
:1054D0002A70C7F340126A706FF0FF0202EA1127C8
:1054E00047EA116169809CFA8CF169602B72190A94
:1054F0006972C3F30351A97202EA1341F2B2114473
:10550000A981C6F38521A973C6F30121E9731109A5
:10551000297406F00F0169744E469DF81710A9749E
:10552000002586E74FF000417BE700BFFF0FE01F3B
:10553000F8B504460068E56A416B090402D52907FD
:1055400000F18080416BC90552D4416B490402D5FA
:10555000290700F1B080426B416B12F03A0F00F066
:105560009780890703D5616B41F002016163416B4C
:10557000090703D5616B41F008016163416B89063E
:1055800003D5616B41F020016163416BC90603D50E
:10559000616B41F0100161635C498163C16B21F46F
:1055A0009D7102F055FCC16A41F40051C162C168AD
:1055B00041F08001C16002F0DBFE2168626B1043A4
:1055C0006063C86820F08000C8604FF400608863A2
:1055D00028077DD4280634D5606B90B3C86B20F0C3
:1055E0008050C86300200865012084F8300074E012
:1055F0004FF4807181634CF23A12C16B9143C163E5
:10560000C16B21F0805102F023FC290727D4290621
:1056100017D500268662C662066515F0220F04D0F3
:1056200002F0A6FE08B102F06BF9012084F8300008
:10563000E66215F0300F02D0204600F097FAA80776
:105640001CD1F8BDA06A2028FBD3656A0026AF19DB
:10565000202E18D002F03EFA02F016F9F7E715F006
:10566000220F04D002F084FE08B102F049F920684C
:10567000264902F00FFCE062A80733D02046BDE8BF
:10568000F84000F071BAA06A67622038A062F8BDE5
:10569000C900D6D54FF080518163006D05F020011F
:1056A000400729D420460029BDE8F84018BFFFF77D
:1056B0001CBCFFF718BC206A2028C2D3E66900276B
:1056C0006D46F019202F12D002F055F80437F8E794
:1056D000012084F830000020E0622046BDE8F84058
:1056E000FFF78ABD2046BDE8F84000F03FBAE06110
:1056F000206A20382062F8BD20460029BDE8F84025
:1057000018BFFFF7F1BBFFF7EDBB00BF3A0F001862
:10571000B0B586B048B3044690F8300020B90020F8
:105720002076204600F06AF9042084F830002046F4
:1057300000F036F8C8B901A92046FFF73BFEA0B932
:10574000A26B9DF814009DF81510012A06D108439C
:105750000CBF4FF480704FF4007000E00020A06593
:10576000E1682046FFF798FC10B1012006B0B0BDFB
:10577000FDF72EFC05462046FFF708FE042807D05B
:10578000FDF726FC401B0130F5D102F008F9EDE7EA
:1057900000206063E062012184F83010E6E7000039
:1057A0002DE9F0438FB081464FF480300021002472
:1057B000FEF73AF9B0B38D4F0546002100220023D1
:1057C000B0FBF7F6D9F80000CDE9004602F072FF11
:1057D000D9F8000002F07EFFBD4202D37000B5FB95
:1057E000F0F58348B0FBF5F00130FDF7DBFA00205F
:1057F0000490D9F8000002F0CDFC08BBD9F80000F5
:1058000002F0EEFCB0F1004F12D10020C9F83C00CC
:10581000D9F8000002F0BEFC90B9D9F83C0001288C
:1058200009D019E0012189F830104FF000600DE037
:105830000120C9F83C0002F02CF968B14FF080500B
:10584000012189F83010D9F834201043C9F8340008
:1058500008460FB0BDE8F08300214FF6FE76664D96
:105860000020049AB8B9B24215D802F012F9002803
:10587000E6D1D9F80000294602F059FC0028DDD114
:10588000D9F8000002F00AF9049901310491C0F33B
:105890008071C00FE5E704984FF6FF72904202D383
:1058A0004FF08070CCE70020C9F83810ADF80E003A
:1058B000FDF78EFB0546D9F8000002F0F3FE98B123
:1058C000D9F83800032812D1D9F80000042102F0D9
:1058D000EDFE000DC9F8400004A94846FFF78EFC14
:1058E000E0B34FF0805040E04FF080603DE0D9F8E9
:1058F000000002F0BFFCC0BBD9F80000DFF8F48064
:105900000021C047C9F86C00D9F800000421C04745
:10591000C9F87000D9F800000821C047C9F8740020
:10592000D9F800000C21C047C9F87800D9F8380030
:105930000328C9D000210DF10E0641F2873759BB6B
:10594000D9F80000314602F0E9FC70B9FDF740FBE0
:10595000401BB84246D8BDF80E10F0E7D9F8441005
:10596000D9F80000090402F072FC00287FF468AF47
:10597000D9F8000002F045F960B1D9F80010A24A48
:105980008A63D9F8341008430121C9F8340089F832
:1059900030105DE700215BE7D9F83800032893D089
:1059A000C9F84410D9F80000090402F079FC002875
:1059B000DBD1D9F800000021C047C9F85C00D9F854
:1059C00000000421C047C9F86000D9F80000082190
:1059D000C047C9F86400D9F800000C21C047C9F8D5
:1059E000680071E74FF00040BFE700BF00350C00D2
:1059F00010210100AD860008000010C12DE9F04320
:105A0000B7B0044632A81421FAF7BAFC02A8B821AC
:105A10000830FAF7B5FC20682A4988424FD14FF484
:105A200080304FF00008CDF80C800290CDF85880FF
:105A300002A8FEF741F908B1FBF75DFD22484FF0DF
:105A40000C0903260227214C016841F480310160D2
:105A5000016801F4803101910199C16841F00401AC
:105A6000C160C16801F0040101910199C16841F070
:105A70000801C160C06800F0080001900198CDF8ED
:105A8000D890CDE9348633974FF4F850329032AD48
:105A900020462946FDF7C6F9042032902946CDE973
:105AA0003569CDE9337804F58060FDF7BBF9312025
:105AB00000210022FDF78AFE3120FDF779FE37B084
:105AC000BDE8F08300700052D44402580008025828
:105AD0002DE9F04186B0044641B101F075FF0AD1CD
