:020000040800F2
:1000000088580024AD020008D16F0008096000087C
:10001000DD6E0008190B0008F998000800000000C8
:10002000000000000000000000000000D98B000864
:10003000190F000800000000A57B00087D8E000855
:10004000C7020008C7020008C7020008C70200086C
:10005000C7020008C7020008C7020008C70200085C
:10006000C7020008C7020008C70200084D0B0008BD
:10007000590B0008C7020008C7020008C7020008A1
:10008000C7020008C7020008C7020008C70200082C
:10009000C7020008C7020008C7020008C70200081C
:1000A000C7020008C7020008C7020008C70200080C
:1000B000C7020008C7020008C7020008C7020008FC
:1000C000C7020008C7020008C7020008C7020008EC
:1000D000C7020008C1970008C7020008C70200084D
:1000E0001B0F0008C702000800000000C70200083C
:1000F000C7020008C7020008C7020008C7020008BC
:10010000C7020008F97F0008C7020008C7020008FC
:10011000C7020008C7020008C7020008C70200089B
:10012000C7020008C7020008C7020008C70200088B
:10013000C7020008C7020008C7020008C70200087B
:1001400000000000000000000000000000000000AF
:10015000C7020008C7020008C7020008C70200085B
:10016000C7020008C7020008C7020008C70200084B
:10017000C7020008C7020008C7020008000000000C
:10018000C7020008C7020008C7020008C70200082B
:10019000C7020008C7020008C7020008C70200081B
:1001A000C7020008C7020008C7020008C70200080B
:1001B000C7020008C7020008C7020008C7020008FB
:1001C000C7020008C7020008C7020008C7020008EB
:1001D000C7020008C7020008C7020008C7020008DB
:1001E000C7020008C7020008C7020008C7020008CB
:1001F000C7020008C7020008C7020008C7020008BB
:10020000C7020008C7020008C7020008C7020008AA
:10021000C7020008C7020008C7020008C70200089A
:10022000C7020008C702000825640008000000009B
:10023000C7020008C702000800000000C70200084B
:10024000C7020008C7020008C7020008C70200086A
:10025000C7020008C7020008C7020008C70200085A
:10026000C7020008C7020008C7020008C70200084A
:10027000C7020008C7020008C7020008000000000B
:10028000C7020008C7020008C702000800000000FB
:1002900000000000C7020008DFF80CD000F0D0FA20
:1002A0000048004709BD00088858002406488047D8
:1002B00006480047FEE7FEE7FEE7FEE7FEE7FEE74B
:1002C000FEE7FEE7FEE7FEE76D8F000899020008F3
:1002D0002DE9F05F0546002092469B46884606467B
:1002E000814640241BE0284641464746224600F00E
:1002F000A6F853465A46C01A914110D311461846E3
:10030000224600F08DF82D1A67EB01084F46224671
:100310000120002100F084F817EB00094E41201E57
:10032000A4F10104DFDC484631462A464346BDE8D5
:10033000F09F10B5431A934209D28318881803E03E
:1003400010F8011D03F8011D521EF9D210BD40EA3C
:1003500001039B0703D009E008C9121F08C0042A43
:10036000FAD203E011F8013B00F8013B521EF9D22A
:1003700010BDD2B201E000F8012B491EFBD270473C
:100380000022F6E710B513460A4604461946FFF761
:10039000F0FF204610BD30B505462A460B4612F840
:1003A000010B13F8014B08B1A042F8D01CB1002892
:1003B00002D06D1CF1E7284630BD421C10F8011B2D
:1003C0000029FBD1801A7047034611F8012B00F871
:1003D000012B002AF9D11846704770B506460BF07C
:1003E0006BFF046805460A220021304600F037F80A
:1003F0002C6070BD30B50B46014600202022012440
:1004000009E021FA02F59D4205D303FA02F5491BE2
:1004100004FA02F52844151EA2F10102F1DC30BDF8
:10042000202A04DB203A00FA02F1002070479140B4
:10043000C2F1200320FA03F3194390407047202AA9
:1004400004DB203A21FA02F00021704721FA02F37E
:10045000D040C2F1200291400843194670472DE96F
:10046000F04791460F4680460446002614F8015B8B
:100470002DB100F009FA0068405DC007F6D12B2DC0
:1004800002D02D2D18D0641E4A463946204600F071
:10049000FFF927B13968A14201D1C7F80080710581
:1004A0004FF002040BD54042002803DD0BF004FF9F
:1004B0000460A007BDE8F08746F48066E4E7002802
:1004C000F8DA0BF0F9FE04606FF00040F2E72DE976
:1004D000FE4F804681EA0300C00F0C46009021F0D9
:1004E000004123F00045B8EB0200A94105D2404687
:1004F000214690461C460B46024623F0004010431E
:1005000047D0270DC7F30A00C3F30A510290401ADF
:10051000019040286BDAC3F3130040F4801B00986D
:10052000924620B10023D2EB030A63EB0B0B019838
:100530005946C0F140025046FFF772FF06460D468D
:1005400050465946019A00F08DF910EB08006141C0
:10055000002487EA115284EAE7731A4340D0009AD4
:1005600062B3019A012A4FEA075215DC001B61EBC6
:1005700002014FF0004202EA0752CDE90042001C9E
:1005800041F5801132462B4600F0E0F903B0BDE89A
:10059000F08F40462146F9E7001B61EB0201001C89
:1005A00041F5801300185B412018A2F5001747EBB6
:1005B000030140EAD570B6196D4111E06D084FEAAC
:1005C000360645EAC0754FEA0752001B61EB02018F
:1005D000001C41F5801149084FEA300000195141D3
:1005E00032462B4603B0BDE8F04F00F0A0B90098AA
:1005F000012240000023D0EB020263EBE07300987D
:1006000021464FEAE074B8EB000061EB0401E9E732
:1006100083F000435BE781F0004158E72DE9FE4F8E
:1006200081EA030404F0004421F0004100944FF0FB
:10063000000B23F0004350EA01045ED052EA0304A9
:100640005BD0C3F30A54C1F30A552C44A4F2F3342B
:100650000194A0FB0254C1F3130141F48011C3F3D0
:10066000130343F4801301FB024400FB034E840A8E
:10067000970A44EA815447EA8357A4FB0768029526
:100680008D0A05FB07854FEA932C04FB0C542705C4
:10069000029D4FEA065847EA1637B5EB08056EEBA0
:1006A000070C870E920E47EA811742EA8312A7FBD6
:1006B0000201B6EB0B0164EB00042B0D43EA0C3393
:1006C0005E1844EB1C50DA465146E7FB0201C5F3C5
:1006D00013044FEA0B3343EA14534FEA0432019CEC
:1006E00043EA0603A4F10C040294009CCDE900B493
:1006F00000F02CF903B0BDE8F08F00200146F9E7C7
:100700002DE9F04D81EA030404F0004B21F000458F
:1007100014464FF0000A23F0004150EA050220D0B1
:1007200054EA01021DD0C5F30A570246C5F313036C
:10073000C1F31300C1F30A5640F4801543F480134B
:10074000A7EB0608101BD64608F2FD3873EB050030
:1007500002D308F1010801E092185B41B8F1000FE3
:1007600003DA00200146BDE8F08D00204FF480112F
:10077000064684460EE0171B73EB050705D3121BD4
:1007800063EB050306434CEA010C49084FEA3000CD
:1007900092185B4150EA0107EDD152EA030012D0F2
:1007A00082EA040083EA0501084305D0101BAB412F
:1007B00006D20122002306E000224FF0004302E0AF
:1007C0006FF0010253101AEB06004CEB085110EBCE
:1007D0000A0041EB0B01BDE8F04D00F0A8B8C1F3F1
:1007E0000A52C1F3130140F2FF3341F480119A42DF
:1007F00002DA00200146704740F233439A42A2F2E7
:10080000334202DC5242FFF71ABEFFF709BE000076
:1008100030B5041E71F1000404DB4FF00044404287
:1008200064EB0101141E73F1000405DB1C464FF05C
:100830000043524263EB0403994208BF904230BD2B
:10084000064C074D06E0E06840F0010394E807001D
:1008500098471034AC42F6D3FFF722FDC0E1000800
:10086000E0E10008202A06DBCB17203A41FA02F02B
:1008700043EAE07306E041FA02F3D040C2F12002FD
:10088000914008431946704700487047ACD20008B1
:100890002DE9F05F82460078002715468B460AF165
:1008A0000104B946302801D09DB113E014F8010BC2
:1008B0000127782803D0582801D045B10AE00DB1AE
:1008C000102D07D10027102514F8010B02E0082590
:1008D00000E00A250026B0460EE005FB080005FBF7
:1008E00006F1012701EB10461FFA80F8B6F5803FAC
:1008F00000D3B94614F8010B294600F075F800281A
:10090000EBDABBF1000F05D00FB1641E00E05446D6
:10091000CBF80040B9F1000F06D00BF0CDFC02215E
:100920000160C81EBDE8F09F48EA0640FAE710B52E
:10093000141E73F1000408DA401C41F10001921802
:100940005B411A4301D120F0010010BD2DE9F04DAB
:1009500092469B4611B1B1FA81F202E0B0FA80F200
:1009600020329046FFF75CFD04460F4640EA0A003D
:1009700041EA0B0153465A46084313D0114653EA45
:10098000010019D0C8F140025046FFF758FD054656
:100990000E46504659464246FFF742FD084305D0F1
:1009A000012004E020463946BDE8F08D00200543D3
:1009B00046EAE0762C4337430A986305E40AA0EB45
:1009C00008000022FD0A44EA47540A3002D50020FC
:1009D0000146E9E7010510196941DDE908450019FB
:1009E0006941BDE8F04DA2E73A2800D2303820F046
:1009F0002002412A01D3A2F13700884201D34FF0EF
:100A0000FF3070470146404804F0C6B980B53E4803
:100A100004F0D2F9043818BF012080BD80B500F081
:100A200013F801281CBF022080BD374804F086FB64
:100A300000B180BD34484FF4804104F043F80028F1
:100A400018BF012080BD00BF81B001208DF80300D8
:100A50009DF8030001B070472DE9F843804629480E
:100A60008E46734606F07AFC9E4609EA4413154604
:100A70000E4645EA030705F14045013EC0F8EC711A
:100A8000F7D1631E002C1C46EFD1BFF34F8F1E48D9
:100A9000414672466346BFF36F8F04F02FFD002876
:100AA00018BF0120BDE8F8830148012101607047AB
:100AB000C80300242DE9F843804612488E46734649
:100AC00006F04CFC9E4609EA441315460E4645EADC
:100AD000030705F14045013EC0F8EC71F7D1631EF4
:100AE000002C1C46EFD1BFF34F8F0748414672469A
:100AF0006346BFF36F8F04F051FD002818BF01203B
:100B0000BDE8F88380ED00E06C0A00240148012173
:100B10000160704730080024FEE710B5044600F07D
:100B20000DF8204601F054FEBDE81040AFF3008000
:100B300005484FF48051002201F055BF02484FF4A0
:100B40008051012201F04FBF00000258014801F01E
:100B5000DBB800BF44080024014801F0D5B800BF4D
:100B6000BC08002410B50168234A914223D0234ACF
:100B700091421CBF224A91421DD0224A91421CBF81
:100B8000214A914217D0214A91421CBF204A9142EA
:100B900011D0204A91421CBF1F4A91420BD01F4ADC
:100BA00091421CBF1E4A914205D01E4A91421CBF71
:100BB0001D4A914214D16FF00F0218231EA452FA5D
:100BC00081F2B2FBF3F303F00703E35CC36540F289
:100BD000FF3399435F2A88BF04318165084610BD01
:100BE000124A9142E7D0124A9142E4D0114A91420E
:100BF000E1D021F0FF01F0E71000024028000240A0
:100C0000400002405800024070000240880002404C
:100C1000A0000240B8000240100402402804024034
:100C2000400402405804024070040240880402401C
:100C3000B8040240A0040240000610160006101678
:100C400010B50168AC4A91420BD0AC4A91421CBF2E
:100C5000AB4A914205D0AB4A91421CBFAA4A91428D
:100C600014D16FF00702174B52FA81F11422B1FB35
:100C7000F2F203F1800103EB820302F01F02012470
:100C8000C0E9183104FA02F2826610BD9F4A91420F
:100C9000E7D09F4A9142E4D09E4A9142E1D06FF062
:100CA0000F021823084C52FA81F2A142B2FBF3F36F
:100CB0001A4688BF0832AA34A14228BF1A46034BFD
:100CC000D7E700BF005802580F0402400008024056
:100CD00070B501794A1E072A1AD8144B0568864E4A
:100CE00003F14404B5420BD0844EB5421CBF844E80
:100CF000B54205D0834EB5421CBF834EB54208D1E4
:100D0000012503EB8101C0E91B1405FA02F24267D9
:100D100070BD7E4EB542F3D07E4EB542F0D07C4ED3
:100D2000B5421CBF024B03F14404E9E7FC580258EA
:100D3000FC080240F0B5964604685F4AD0F858C0F7
:100D400094423BD05D4FBC421CBF5D4FBC4235D08E
:100D50005C4FBC421CBF5C4FBC422FD05B4FBC42BF
:100D60001CBF5B4FBC4229D05A4FBC421CBF5A4FDC
:100D7000BC4223D0594FBC421CBF594FBC421DD06E
:100D8000584FBC421CBF584FBC4217D0574FBC42B3
:100D90001CBF574FBC4211D0564FBC421CBF564FD0
:100DA000BC420BD0554FBC421CBF554FBC4205D076
:100DB000544FBC421CBF544FBC4267D1C66ED0E9F1
:100DC00019757D6016B1D0E91C566E60944229D029
:100DD0003A4A94421CBF3A4A944223D0394A944238
:100DE0001CBF394A94421DD0384A94421CBF384A2D
:100DF000944217D0374A94421CBF374A944211D0CC
:100E0000364A94421CBF364A94420BD0354A94422B
:100E10001CBF354A944205D0344A94421CBF344A20
:100E2000944217D18268C06D3F2500F01F0005FA7B
:100E300000F0CCF80800206820F480202060402AD0
:100E4000636003D1C4F808E0E160F0BDA160C4F8BC
:100E50000CE0F0BD2E4A94421CBF274A94420BD0AE
:100E6000264A94421CBF264A944205D0254A944201
:100E70001CBF254A944214D18268C06D012500F040
:100E80001F0005FA00F0CCF80400D8E71F4FBC4261
:100E900094D01F4FBC4291D01E4FBC423FF48EAF46
:100EA000D7E71A4A9442E7D01A4A9442E4D0114A4A
:100EB0009442B7D0CDE700BF1000024028000240A6
:100EC000400002405800024070000240880002408A
:100ED000A0000240B8000240100402402804024072
:100EE000400402405804024070040240880402405A
:100EF000A0040240B8040240085402581C5402588E
:100F00003054025844540258585402586C540258F1
:100F1000945402588054025870474FF4006001F016
:100F20008DBCEFF3108072B6FEE70022AFF30080B5
:100F3000B0B50D4C0346607A08B10120B0BD657AAA
:100F400000206055657A04EB85056B60637A234465
:100F50001A72627A531C63723032C8700A7042F699
:100F60003A73A1F80130B0BD3808002470B50B68A1
:100F70000268D3B101F11C0522F4F84201F10C061C
:100F800038CD1A4347F6FF7322432A43026001F12A
:100F9000100550F8042F9A434B6842EA030401F10C
:100FA000180201F11403083112E00E1D47F6FF7319
:100FB0009A4378CE1A4301F1200322432A4301F1D8
:100FC0001C0542EA060401F1240201F1180614315D
:100FD00009681B6812682143346821432C68214347
:100FE000194311430160002070BD426943F6FE734E
:100FF0009A4342EA4101416100207047B0B591E84F
:101000001C006FF01F05C96805EB441405696FF3F8
:1010100015052A431A43224342EA41210161002077
:10102000B0BD0000F0B5034653F8084F1AB3CB68C3
:10103000254D244A264F22404C6905EB03331A43C1
:10104000224B03EB04531A43826050F80C3F0A69A9
:101050008D68D1E9004603F07043013C07EB024282
:101060006FF0FF071C43034607EB05256FF00F07E2
:1010700007EB06161BE091E865006FF00F0704F020
:101080007044013807EB0212204310436FF0FF0257
:1010900002EB05220E4D40EA020448690B4A02EBBE
:1010A0000052086905EB0045074800EB063644EAA4
:1010B0000600896928430139104340EA016018603D
:1010C0000020F0BDFF0F0FFF00F0FFFF0000F0FF5A
:1010D0000000FFFF2DE9F04FD5B00027DFF814B175
:1010E00002AC45A549A60FF27C18022F1ED05BF872
:1010F000270021460AF068F888B10246042859D131
:101100005BF8271030460BF09BF85BF8270009F0DE
:101110004DFA5BF82710002850D1404602E05BF8FA
:10112000271028460BF08CF80137DEE74FF0000857
:10113000DFF848A10DF59174514D02AEDFF84891EA
:10114000524FB8F1030F3BD05AF82830DBF800209B
:10115000204629460BF084F8204631460AF034F840
:1011600010B3024604282DD1484606F053F93846FC
:1011700021460A2209F0E4FD50BB464806F04AF930
:10118000B8F1020F0CD1384643A1092201AB0AF095
:10119000D1F830BB0198092823D1434806F03AF929
:1011A000384609F03DF902E0364806F033F908F117
:1011B0000108C6E75BF827102F4806E020A00AE0E8
:1011C00000200BE039480DF591710BF039F804E07F
:1011D0002F480DF591710BF033F8012055B0BDE8A3
:1011E000F08F30480DF591710BF02AF8274809F07F
:1011F00017F9F2E7EC000024466F6C646572202555
:1012000073206578697374732E0A00005761726EDB
:10121000696E673A2043616E6E6F742066696E6412
:1012200020666F6C6465722025732C206372656183
:1012300074696E67206F6E65202E2E2E0A000000E6
:101240004572726F723A2043616E6E6F74206372E2
:101250006561746520666F6C6465722025732E0A63
:1012600000000000466F6C64657220257320637275
:1012700065617465642E0A00D4DD0008DC0000247A
:10128000E2DE00084ADE00087CDD000800060024DB
:1012900010DE0008FEDD00084C415354203D203094
:1012A0000A0000005EDC00082FDE0008ACDD00084C
:1012B00010B5ADF50C7D04460EA006F0F8F86846B2
:1012C0002146002209F03CFD28B9684609F0A8F83B
:1012D0000FA00BF047FF204609F0DBFF20B10146CD
:1012E00010A00AF0ADFF02E018A00BF03BFF0DF5D7
:1012F0000C7D10BD0D0A2A2A2A2044656C65746590
:101300002046696C653A2025732A2A2A0D0A0000B6
:101310004F70656E207375636365737366756C6C6F
:1013200079210D0046696C652064656C6574696F90
:101330006E206661696C65642C206572726F722024
:10134000636F64653A2025640D0A000054686520C7
:1013500066696C65207761732064656C657465648B
:10136000207375636365737366756C6C79210D000A
:10137000FEB501A91EA002AA09F075F808B11DA0CA
:1013800033E021480BF0EEFE0298214D019F0178D9
:10139000468984691D48A8471E480BF0E3FE1E4895
:1013A000A8471EA04FF40071A847029841891D4824
:1013B000A84702988069811E1B48A847A01E00FB11
:1013C00006F41A482146A847E10A620D1848A847C2
:1013D000019918A0A84707FB06F41DA02146A847BD
:1013E000E10A620D21A0A84729A00BF0BBFEFEBDBB
:1013F000303A0000665F676574667265652829206B
:101400006572726F720D000099DB00084FDC0008F6
:1014100041C20008DCDB000839DC000825640D0A45
:1014200000000000FBDA000862DB00087EDB000839
:10143000D9DA00084672656520636C75737465724D
:1014400020636F756E74203D20256C640D0A0000CA
:101450004672656520736563746F7220636F756E85
:1014600074203D20256C640D0A00000046726565FD
:10147000207370616365203D20256C64284D4229EE
:10148000203D20256C64284742290D0A00000000F9
:1014900047657420464154206469736B20696E6609
:1014A0006F204F4B0D000000B0B5C6B0054614A02C
:1014B00029460AF0C5FE6C462846214609F084FEFE
:1014C000042814D00146B0B9009916A01C4DA847B5
:1014D0009DF808101BA0A84704F116011FA0A847FB
:1014E000BDF80610BDF8040000F054F806E00C4802
:1014F0000BF038FE02E01EA00AF0A2FE46B0B0BD1E
:101500000D0A2A2A2A2046696C6520696E666F20BA
:101510006F663A202573202A2A2A0D0A000000004F
:1015200002DC000846696C652073697A6528627977
:1015300074657329203D20256C640D0A00000000AD
:1015400041C2000846696C652061747472696275F5
:101550007465203D20307825780D0A0046696C6559
:10156000204E616D65203D2025730D0A00000000AE
:10157000665F737461742829206572726F722C2003
:101580006572726F7220636F64653A2025640D0A7C
:101590000000000010B50C4640F2BC71C0F34312CD
:1015A00000F01F0301EB502106A00AF049FEE10AFA
:1015B000C4F3451204F01F0308A0BDE810400AF070
:1015C0003FBE00BF46696C652064617465203D20A4
:1015D00025642F25642F25640D0A000046696C657B
:1015E0002074696D65203D2025643A25643A2564A0
:1015F0000D0A000070B5ADF5267D044615A005F076
:1016000056FF1AA82146012209F09AFB042811D09E
:10161000014688B901AC1AAD18A61D9820998142DF
:101620000ED0204664212A4608F095FF304605F08A
:101630003EFFF2E7104804E012A00AF001FE02E0CB
:101640000FA00BF08FFD1AA808F0EAFE0DF5267D1D
:1016500070BD00BF0D0A2A2A2A2052656164696E96
:1016600067205458542066696C653A202573202AF7
:101670002A2A0D0A0000000002DC00082573000081
:101680000D000000665F6F70656E2829206572721C
:101690006F722C206572726F7220636F64653A20DE
:1016A00025640D0A000000002DE9F041D4B0044685
:1016B00047A8214609F05EFC40B1054647A808F05E
:1016C000C3FE15A029460AF0BBFD21E01CA005F0D1
:1016D000EEFE01AC47AE0FF28C0825A704F116050B
:1016E0003046214609F048FD60B99DF81A0048B11E
:1016F0009DF80C002946C006384658BF40460AF0FF
:101700009FFDEDE71DA00BF02DFD47A808F09CFE06
:1017100054B0BDE8F08100BF0D0A665F6F70656E62
:101720006469722829206572726F722C206572724A
:101730006F7220636F64653A2025640D0A00000013
:101740000D0A2A2A2A20416C6C20656E7472696524
:101750007320696E206469723A202573202A2A2A30
:101760000D0A000046494C453A2025730D0A000039
:101770004449523A2025730D0A0000005363616EFC
:1017800020646972204F4B0D00000000B0B5ADF52C
:10179000127D044611A005F08AFE06A821460A2201
:1017A00009F0CEFA10B1014615A00EE01D480090D8
:1017B00001AF1CA0051D406905902ECD68462EC7BF
:1017C00006A909F01BFC1DA021460AF039FD06A858
:1017D00008F026FE0DF5127DB0BD00BF0D0A2A2AC5
:1017E0002A204372656174696E67205458542066DC
:1017F000696C653A202573202A2A2A0D0A00000008
:101800004F70656E2066696C65206572726F722C10
:10181000206572726F7220636F64653A2025640DD3
:101820000A0000004C696E65313A2048656C6C6FA7
:101830002C2046617446732A2A2A0A00577269745A
:10184000652066696C65204F4B3A2025730D0A00B0
:10185000F8B5044601F0D2F8002C00F0908005465F
:1018600094F83500022840F08C802768A44EB742D7
:1018700024D0A44887421CBFA34887421ED0A34857
:1018800087421CBFA248874218D0A24887421CBF8B
:10189000A148874212D0A14887421CBFA048874276
:1018A0000CD0A04887421CBF9F48874206D09F4863
:1018B00087421CBF9E48874240F0E780386820F08E
:1018C0001E01384640F8141B6FF080010268114079
:1018D0000160B7423CD08B4887421CBF8A48874290
:1018E00036D0F44887421CBFF348874230D0F348D3
:1018F00087421CBFF24887422AD0F24887421CBF69
:10190000F148874224D0F14887421CBFF048874203
:101910001ED0F04887421CBFEF48874218D0EF48DE
:1019200087421CBFEF48874212D0ED4887421CBF58
:10193000ED4887420CD0ED4887421CBFEC488742F7
:1019400006D0EC4887421CBFEB48874240F0C0807D
:10195000206E016821F480710160386820F0010078
:1019600038603868C00710D001F048F8401B0628DE
:10197000F7D320206065032084F8350003E00120C0
:10198000F8BD8020606501207CE02068B04223D053
:10199000C64988421CBFC64988421DD0C5498842F5
:1019A0001CBFC549884217D0C44988421CBFC449DE
:1019B000884211D0C34988421CBFC34988420BD01A
:1019C000C24988421CBFC249884205D0C1498842E9
:1019D0001CBFC149884268D1D4E916123F2302F0E6
:1019E0001F0203FA02F28A60B0423BD0AF4988423C
:1019F0001CBFAF49884235D0AE4988421CBFAE49B2
:101A000088422FD0AD4988421CBFAD49884229D0B9
:101A1000AC4988421CBFAC49884223D0AB498842BC
:101A20001CBFAB4988421DD0AA4988421CBFAA49A5
:101A3000884217D0A94988421CBFAA49884211D0C0
:101A4000A74988421CBFA84988420BD0A7498842B1
:101A50001CBFA749884205D0A64988421CBFA64999
:101A6000884242D1E06ED4E919124A6030B101686F
:101A700021F480710160D4E91C014160012084F8E7
:101A80003500002005F02DFEF8BD944887423FF454
:101A900015AF934887423FF411AF924887423FF415
:101AA0000DAF6FF00E01384610E78C49884293D095
:101AB0008B49884290D08B4988423FF48DAFD4E95E
:101AC0001612012302F01F0203FA02F24A608BE7AA
:101AD0008A4887423FF43CAF894887423FF438AF99
:101AE000884887423FF434AF37E784498842B9D009
:101AF00083498842B6D083498842B3D0BEE700BF4D
:101B000010000240280002404000024058000240FD
:101B10007000024088000240A0000240B80002406D
:101B200010040240280402404004024058040240CD
:101B300070040240B0B500285CD090F8351002293E
:101B400056D10168584A914223D0584B99421CBF44
:101B5000574B99421DD0574B99421CBF564B994247
:101B600017D0564B99421CBF554B994211D0554B3B
:101B700099421CBF544B99420BD0544B99421CBF05
:101B8000534B994205D0534B99421CBF524B99423B
:101B900033D1042380F83530914223D04348814229
:101BA0001CBF434881421DD0424881421CBF42486D
:101BB000814217D0414881421CBF4148814211D027
:101BC000404881421CBF404881420BD03F4881427F
:101BD0001CBF3F48814205D03E4881421CBF3E4861
:101BE00081424DD1086820F001000860002102E028
:101BF0008021416501210846B0BD384B9942C8D0CB
:101C0000374B9942C5D0374B9942C2D00A6822F06F
:101C10000E020A600A6822F001020A60324A91420A
:101C20000BD0324A91421CBF314A914205D0314A11
:101C300091421CBF304A91422BD100F158041ECC76
:101C40001D6825F480751D6002F01F02012303FA50
:101C500002F24A60816E6160C16E31B10A6822F49D
:101C600080720A60D0E91C124A60002180F83410AA
:101C7000012280F83520026D002ABCD09047B5E7DC
:101C800016488142AED016488142ABD015488142F9
:101C9000A8E71A4A9142D0D0194A9142CDD0194AA8
:101CA0009142CAD0E1E700BF100002402800024084
:101CB000400002405800024070000240880002408C
:101CC000A0000240B8000240100402402804024074
:101CD000400402405804024070040240880402405C
:101CE000B8040240A0040240085402581C54025890
:101CF0003054025844540258585402586C540258F4
:101D000094540258805402582DE9FC4104460020A6
:101D10000190D54FDFF8DC04A66DD0F80080206874
:101D200035683168B8422AD0D04A90421CBFD04AA8
:101D3000904224D0CF4A90421CBFCF4A90421ED03E
:101D4000CE4A90421CBFCE4A904218D0CD4A904213
:101D50001CBFCD4A904212D0CC4A90421CBFCC4A04
:101D600090420CD0CB4A90421CBFCB4A904206D046
:101D7000CA4A90421CBFCA4A904240F09381E16D2A
:101D8000082201F01F018A402A4235D00423BC46B4
:101D9000B84224D0B54FB8421CBFB54FB8421ED090
:101DA000B44FB8421CBFB44FB84218D0B34FB8427A
:101DB0001CBFB34FB84212D0B24FB8421CBFB24F93
:101DC000B8420CD0B14FB8421CBFB14FB84206D098
:101DD000B04FB8421CBFB04FB84240F0988107687E
:101DE0001F42674608D0036823F004030360B26013
:101DF000626D42F00102626501228A402A422ED0C1
:101E0000B84224D0994B98421CBF994B98421ED09F
:101E1000984B98421CBF984B984218D0974B9842C9
:101E20001CBF974B984212D0964B98421CBF964BC2
:101E300098420CD0954B98421CBF954B984206D0C7
:101E4000944B98421CBF944B984240F06D8143697B
:101E50001B0604D5B260626D42F002026265042284
:101E60008A402A422ED0B84224D0804B98421CBFD0
:101E70007F4B98421ED07F4B98421CBF7E4B9842AE
:101E800018D07E4B98421CBF7D4B984212D07D4BA0
:101E900098421CBF7C4B98420CD07C4B98421CBF94
:101EA0007B4B984206D07B4B98421CBF7A4B9842A2
:101EB00040F0488103689B0704D5B260626D42F030
:101EC00004026265102202FA01F129423ED0082282
:101ED000B84224D0C84B98421CBFC84B98421ED071
:101EE000C74B98421CBFC74B984218D0C64B98426C
:101EF0001CBFC64B984212D0C54B98421CBFC54B65
:101F000098420CD0C44B98421CBFC44B984206D098
:101F1000C34B98421CBFC34B984240F021810368D9
:101F2000134213D0B16002680168520306D4C90598
:101F300006D4016821F00801016001E0080301D422
:101F4000216C00E0A16C09B120468847E06D00F0EB
:101F50001F01202000FA01F22A425BD020681023E2
:101F6000B84224D0A44DA8421CBFA44DA8421ED004
:101F7000A34DA8421CBFA34DA84218D0A24DA84211
:101F80001CBFA24DA84212D0A14DA8421CBFA14D1A
:101F9000A8420CD0A04DA8421CBFA04DA84206D01C
:101FA0009F4DA8421CBF9F4DA84240F0E6800568A7
:101FB0001D422FD0B26094F835300268042B15D141
:101FC00022F016020260426922F080024261226C15
:101FD0000AB9A26C1AB1026822F0080202603F201E
:101FE0008840B06005F026FA216D37E001685203A1
:101FF00008D4C9050AD4016821F01001016005F078
:1020000019FA03E0080301D4616C00E0E16B09B147
:1020100020468847606D20B3606DC0071DD04FF427
:102020001650B8FBF0F1042084F8350020680268EF
:1020300022F001020260019A013201928A4202D822
:102040000268D207F7D105F04CFB0068C0074FF0DB
:10205000030008BF012084F83500E16C09B1204677
:102060008847BDE8FC8100BF100002402800024004
:1020700040000240580002407000024088000240C8
:10208000A0000240B80002401004024028040240B0
:102090004004024058040240700402408804024098
:1020A000A0040240624A90421CBF624A90420CD097
:1020B000614A90421CBF614A904206D0604A9042F9
:1020C0001CBF604A904240F08780E26D02F01F031F
:1020D000042202FA03F502680D4201D0570759D4D1
:1020E00002259D400D4201D097075DD4D9400907D4
:1020F000B7D51107B5D5016821F00E0101600120A7
:1021000000FA03F17160606505F0EBFAA3E7464F52
:10211000B8423FF464AE454FB8423FF460AE4A4F18
:10212000B84218BF08235AE63F4B98423FF48FAE9F
:102130003E4B98423FF48BAE434B98423FF487AE00
:1021400002688CE6384B98423FF4B4AE374B984265
:102150003FF4B0AE3C4B98423FF4ACAE0268B1E6FF
:10216000314B98423FF4DBAE304B98423FF4D7AE50
:10217000354B984218BF0422D1E62B4DA8423FF4BC
:1021800016AF2A4DA8423FF412AF2F4DA84218BFF8
:1021900002230CE71104756012D4910614D401686F
:1021A00021F0040101600FE0110475600ED4910666
:1021B00010D4016821F00A01016005F03BF909E043
:1021C000D00301D4A16C49E7216C47E7D00301D4C7
:1021D000616C43E7E16B41E7EB4A90423FF475AF36
:1021E000EA4A90423FF471AFE94988423FF4C7ADF3
:1021F00037E700BF400000242800024040000240B2
:10220000580002407000024088000240A0000240D6
:10221000B80002401004024028040240400402407A
:10222000580402407004024088040240A0040240A6
:1022300094540258085402581C54025830540258FE
:102240004454025858540258B80402402DE9F84347
:10225000044600F0D3FB002C7ED005462068BB4F1F
:10226000B8422AD0BA4988421CBFBA49884224D011
:10227000B94988421CBFB94988421ED0B849884232
:102280001CBFB849884218D0B74988421CBFB7491B
:10229000884212D0B64988421CBFB64988420CD049
:1022A000B54988421CBFB549884206D0B449884226
:1022B0001CBFB449884240F0EC80022184F83510FC
:1022C00005F00FFA016821F0010101600168C907FA
:1022D00006D000F093FB401B052838D82068F5E7AE
:1022E0000168AD4AB946D4E90257D4E906C301EA08
:1022F0000208D4E90462D4E9081E45EA08053D4312
:1023000035432A4342EA0C021A431143BEF1040F3B
:1023100003D1D4E90B2311431943A04A1268B2F147
:10232000005F1CD365684F46A5F12902062A0BD32E
:10233000A5F13F02042A07D3A5F14702022A03D3DD
:10234000A5F14F02032A0BD841F4801108E02020A8
:102350006065032084F835000120BDE8F8834F460E
:102360000160BEF1040F416921F0070141EA0E014D
:1023700028D1D4E90A53294323B3BCF5005F08D020
:10238000BCF1000F11D1022D12D0012D07D07DB16B
:1023900018E0032D16D8DFE805F00E0B0E02A3F1AE
:1023A000C072B2FA82F2520904E0032D03D309D1BC
:1023B000C3F3006232B140206065012084F835002B
:1023C000BDE8F883416105F052FB05F07CFA206816
:1023D000B8423BD0E74988421CBFE749884235D024
:1023E000E64988421CBFE64988422FD0E549884229
:1023F0001CBFE549884229D0E44988421CBFE44912
:10240000884223D0E34988421CBFE34988421DD05B
:10241000E24988421CBFE249884217D0E14988421C
:102420001CBFE249884211D0DF4988421CBFE04905
:1024300088420BD0DF4988421CBFDF49884205D063
:10244000DE4988421CBFDE49884272D12046FEF731
:10245000F7FBA06804F16003802806BF00206060DD
:102460006068C5B20ECB013807280D60536005D8EF
:102470002046FEF72DFC05F052FB03E00020C4E9E6
:102480001B00606700206065012184F83510BDE8FD
:10249000F883CD4988421CBFC54988420BD0C54945
:1024A00088421CBFC449884205D0C44988421CBF29
:1024B000C349884231D1022184F83510142204F135
:1024C000080505F00EF933490144B1FBF2F189002A
:1024D000E1652ECD06686FF3101646EAD202A1F12F
:1024E0008006B6FA86F67609B603402908BF10269C
:1024F00042EA0601A26941EAD30141EAD50141EA73
:10250000D201E26941EAD201226A41EA1211016074
:1025100005F0ADFA05F072F959E7AA498842CAD028
:10252000AA498842C7D0A04988423FF4C6AE40209D
:102530000EE7A44988423FF489AFA34988423FF49B
:1025400085AFA24988423FF481AF9BE7100002406B
:102550002800024040000240580002407000024043
:1025600088000240A0000240B8000240100402406F
:102570002804024040040240580402407004024013
:1025800088040240A00402406C540258805402584F
:10259000B8040240F8ABFDA73F8010FE0010005CBD
:1025A000B0B5002800F0B58004F0D7FF04BF0220CA
:1025B000B0BD04F0ABFF40F0AA8004F082FE2068BA
:1025C0006B49884224D06B4A90421CBF6A4A9042B1
:1025D0001ED06A4A90421CBF694A904218D0694A8C
:1025E00090421CBF684A904212D0684A90421CBF79
:1025F000674A90420CD0674A90421CBF664A90429C
:1026000006D0664A90421CBF654A904240F08380E3
:1026100002680B2363F344020260226C1AB1026861
:1026200042F00802026088423BD0524A90421CBFEE
:10263000514A904235D0514A90421CBF504A904274
:102640002FD0504A90421CBF4F4A904229D04F4A47
:1026500090421CBF4E4A904223D04E4A90421CBF2B
:102660004D4A90421DD04D4A90421CBF4C4A904268
:1026700017D04C4A90421CBF4C4A904211D04A4A53
:1026800090421CBF4A4A90420BD04A4A90421CBF1B
:10269000494A904205D0494A90421CBF484A90425C
:1026A0005BD1226E1368DB0303D5136843F4807398
:1026B0001360E26E1AB1136843F4807313608842AA
:1026C00023D02C4988421CBF2B4988421DD02B495E
:1026D00088421CBF2A49884217D02A4988421CBF19
:1026E0002949884211D0294988421CBF284988427B
:1026F0000BD0284988421CBF2749884205D027496A
:1027000088421CBF264988421ED105F052B905F007
:10271000D7F90120B0BD234A90423FF479AF224A55
:1027200090423FF475AF214A90423FF471AF026886
:10273000052363F343020260226C002A3FF473AF67
:10274000026842F004026DE716498842DDD016495E
:102750008842DAD015498842D7E71A4A9042A0D079
:10276000194A90429DD0194A90429AD0CDE700BFB5
:102770001000024028000240400002405800024081
:102780007000024088000240A0000240B8000240F1
:102790001004024028040240400402405804024051
:1027A0007004024088040240B8040240A0040240C1
:1027B000085402581C5402583054025844540258C9
:1027C000585402586C540258945402588054025879
:1027D000B0B5044600F012F905460548611C0078C2
:1027E00018BF044400F00AF9401BA042FAD3B0BD60
:1027F0003800002410B504460A20FFF7E9FF0D4811
:102800004FF4006100F0EAF8B4F5006F08BF00284B
:102810000CD101200021012203F04EFDC820FEF75B
:102820007CF900200021002203F046FD024801212E
:10283000016010BD000002583408002403490A68F2
:10284000024208BF70470860FFF7D4BF88000058F5
:102850002DE9FC4F5C4A0A244FF0000A4FF00009B2
:1028600090425A4A08BF092402444FEAB223092B76
:1028700038BF4FEAB224009400220E6836FA02F7FD
:1028800000F0A080012303FA02F716EA070B00F01C
:102890009380D1F804E003230EF0030CACF10105A2
:1028A000012D13D803FA09F58468CB68AC4303FA09
:1028B00009F36FEA050823438360CEF300134468ED
:1028C000BC4393405700234343600BE003FA09F3F2
:1028D000BCF1030F4F466FEA030803D14F464FF098
:1028E000030C20E0C3688C6803EA0803BC40234360
:1028F000C360BCF1020F16D10AF01C030F2404FAC6
:1029000003FC6FF0030404EA520505442C6A24EA30
:102910000C0C0C6904FA03F343EA0C032B62D1F8A4
:1029200004E00EF0030C04680CFA07F304EA080450
:10293000234303601EF4403F3ED0264C264E2368BE
:1029400043F00203236023680F2403F00203019382
:10295000019D0AF00C0322F003059C40AF5927EAC1
:102960000404009F07FA03F32343AB514FF0B04632
:1029700033684D6843EA0B04EF0258BF23EA0B04A7
:102980003460134EAF02336843EA0B0458BF23EAA6
:102990000B043460AF03D6F8803043EA0B0458BF11
:1029A00023EA0B04C6F88040ED03F36F43EA0B04FF
:1029B00058BF23EA0B04F4670AF1040A09F102097B
:1029C00001325AE7BDE8FC8F002402580000FEA740
:1029D00004000058F44402580804005800690840F4
:1029E00018BF01207047002A08BF090481617047A1
:1029F00001480068000C70470010005C0148006846
:102A0000704700BF8410002490F84120202A03D191
:102A100090F84020012A01D1022111E0242280F8FF
:102A200041200268136823F001031360136823F444
:102A30008053136013681943734604F057FC9E4695
:102A40000846704790F84120202A03D190F8402092
:102A5000012A01D1022110E0242280F841200268DD
:102A6000136823F001031360136823F4706343EACF
:102A70000121734604F03AFC9E4608467047000068
:102A800000B3B0B5044690F8410018B905F06BF8F2
:102A900000F058F9242084F84100D4E90003D4E977
:102AA000021223F07063012A056825F00105056014
:102AB0000361836823F40043836005D141F400413E
:102AC00081600AE001207047022A41F404418160DC
:102AD00003D1416841F4006102E0416821F40061E2
:102AE00041600F4A04F11005416811434160C1681B
:102AF00021F40041C1602ECD114341EA0321C160A0
:102B0000216A29430160016841F001010160002050
:102B10006064202184F84110206384F84200B0BD35
:102B2000008000022DE9F84F04F08EFC0CD1DDF896
:102B300028B0BBF1000F09D0DDF82C80B8F1000FF0
:102B400004D004F03CFF07D1022502E004F072FF3C
:102B500001252846BDE8F88F04F0F4FE04F0C5FD19
:102B60000028F6D1222084F841000C990025F2B209
:102B7000002304F016FE2F488346A0F580600090E5
:102B800004F0CBFC04F0EEFE50B9012E02D004F0AC
:102B9000E1FE28B904F0B2FF402104F03BFD10B182
:102BA00084F84050D4E704F06FFD06D3FF20208561
:102BB000CDF800B004F0E4FE07E0608D51464FF020
:102BC00000732085CDF800B0C2B204F0A6FC002549
:102BD000FF26204604210022434604F01BFD002866
:102BE000B6D104F0F3FC15D1A0B12046802100221B
:102BF000434604F00FFD0028AAD104F045FD05D39B
:102C000026850095204604F0BBFE01E004F0AFFEEF
:102C100003F07EFA608D0028DBD12046414604F0A7
:102C20003FFF002894D1206820210025444B04F068
:102C300099FC8EE7002400802DE9F84F04F004FC95
:102C40000CD1DDF828B0BBF1000F09D0DDF82C80E5
:102C5000B8F1000F04D004F0B2FE07D1022502E063
:102C600004F0E8FE01252846BDE8F88F04F06AFE6E
:102C700004F03BFD0028F6D104F0CFFE0C990025AE
:102C8000F2B24FF0807304F08CFD2C48009004F0F9
:102C900044FC04F067FE50B9012E02D004F05AFE45
:102CA00028B904F02BFF802104F0B4FC10B184F8A3
:102CB0004050D7E704F0E8FC06D3FF20208504F05D
:102CC0005FFE0020009007E0608D00214FF0007350
:102CD000208500915146C2B204F01FFC0025FF265A
:102CE00004F040FE0028BDD104F0A0FC15D1A0B135
:102CF000204680210022434604F08CFC0028B1D1FC
:102D000004F0C2FC05D326850095204604F038FE69
:102D100001E004F02CFE03F0FBF9608D0028DFD108
:102D20002046414604F0BCFE00289BD120682021AB
:102D30000025034B04F016FC95E700BF002000803F
:102D400000E800FE2DE9F043B7B0044632A8142194
:102D5000FDF716FB02A8C021FDF712FB20683B49D6
:102D600088422BD03A4988426DD108200024039430
:102D70000290239402A800F0B5FC08B1FEF7D1F848
:102D8000344D286840F002002860286800F00200F6
:102D90000190CDE934440420369012203390C020B5
:102DA0003290019832A92C48FFF752FDA86840F4F0
:102DB0000010A860A86800F4001042E00820002677
:102DC00003960290239602A800F08CFC08B1FEF74F
:102DD000A8F8204F4FF004084FF012091E4C386835
:102DE00040F080003860386800F080000190019861
:102DF000386840F002003860386800F00200019046
:102E0000CDF8D880CDE93466CDF8CC901020329042
:102E1000019832AD04F5C0502946FFF719FD4FF473
:102E2000006032902946CDE93568CDE933962046D9
:102E3000FFF70EFDB86840F48000B860B86800F491
:102E400080000190019837B0BDE8F0830058004041
:102E500000540040E0440258000402582948034945
:102E600000780A6810440860704700BF841000248E
:102E700080B5032000F0DCF901F058F90E490F4B42
:102E80000A68096801F00F01C2F30322595C9A5CD9
:102E900001F01F0102F01F02D040834A1060C840B9
:102EA000074908600E2000F00DF808B1012080BD30
:102EB00000F084F9002080BD18440258B0D2000808
:102EC0004400002470B50F4E04463078B0B14FF482
:102ED0007A71B1FBF0F074490968B1FBF0F002F0CF
:102EE0001BFD01250F2C0AD848B94FF0FF302146B1
:102EF0000022002500F080F9746000E001252846DA
:102F000070BD00BF3800002410B528B190F83C30E7
:102F1000012B03D1022119E0012117E090F83D3087
:102F2000012B0AD103681C69640006D419635A6333
:102F30001A6921B142F0004103E0012103E022F0CF
:102F4000004119610021002280F83C20084610BD94
:102F5000BCB5044600200190534805684FF0A440DA
:102F60000168206800F5F862C2F38412D140C907F5
:102F700000F099800168C90729D0C168890726D562
:102F8000C16821F00201C16081680A064FF00202A7
:102F900058BF0122A36E1A43A2668A0503D5A26E0A
:102FA00042F00402A266CA0503D5A26E42F00802EE
:102FB000A2664A0503D5A26E42F01002A266090578
:102FC00003D5A16E41F02001A16601214160016895
:102FD000C90609D5C168890606D510214160A16CD2
:102FE00011B12046884720680168090709D5C168E2
:102FF000C90606D508214160E16C11B12046884719
:1030000020680168490709D5C168090706D5042168
:103010004160216D11B12046884720680168890709
:103020001CD5C168490719D5C16821F03E01C160AE
:1030300094F83D10042906D1012084F83D0004F0E5
:103040004DF9A16D2CE00221416004F047F9012007
:1030500084F83D00616C09B120468847A06E10B32A
:103060004FF41650B5FBF0F1042084F83D002068C1
:10307000C26822F00102C260019A013201928A42C2
:1030800002D8C268D207F7D1002184F83C10C0688A
:10309000C0074FF0030008BF012084F83D00616DB8
:1030A00009B120468847BCBD40000024F8B504465D
:1030B000FFF7A4FCA4B10546022084F83D0004F00B
:1030C0000DF92068C16821F00101C160C168C9071C
:1030D00008D0FFF793FC401B052837D82068F5E798
:1030E0000120F8BDD4E9033504F12407D4E901CE69
:1030F00024492B43C360E8CF01EB8541D4E9055255
:103100002A43E5692A43256A2A431A4332433A434C
:1031100042EA0E0211430161BCF1804F03D1016903
:1031200041F04041016100214161626BB2F1FF3F1A
:1031300004DC4169524241F48021416191B2016253
:10314000A26BB2F1FF3F05DD12040AE00120032269
:10315000402113E0416941F4002141610021A1EBCC
:103160000242016A1143016201225FFA8CF181621D
:103170000021C4E91711616641620020A16684F84C
:103180003D20F8BD0000FCFF0B48BFF35F8F0168D6
:1031900021F480310160002101677047064940F049
:1031A00001000867086840F480300860BFF34F8F63
:1031B000BFF36F8F704700BF24ED00E081B0064879
:1031C000016841F002010160006800F00200009017
:1031D000009801B0704700BFF4440258002808D49A
:1031E00000F01F010122400902FA01F1014A42F8F0
:1031F0002010704700E100E070B5134B4FF0FF3531
:103200001B68C3F30223DC1E83F0070338BF0024CE
:1032100005FA04F6B243042B28BF042305FA03F38E
:103220009943A1401143BDE8704006F067BB00BF61
:1032300005494FF6FF030A681A4060F30A22034863
:1032400010430860704700BF0CED00E00000FA0575
:10325000B0B50F4D2A682968520705D401F007015F
:10326000081A18BF0120B0BD21F00701084304F07F
:10327000E8F8044655F8080C800406D4FFF7BEFBB6
:1032800004F030F8F6D90120B0BD0020B0BD00BF79
:103290000C48025880B500F013FF0249024A04F0BE
:1032A000BDB900BF20440258B0D20008B0B51D49D6
:1032B0008B6A8A6ACC6A4D6BC2F305126AB104F05C
:1032C000010404F03FF90CD0012B0DD013B90B68A9
:1032D0009B060CD49FED161A13E00021C0E90011E3
:1032E0001DE09FED121A0CE09FED0F1A09E00B682C
:1032F000104CC3F3C10324FA03F301EE103AB8EE05
:10330000411A0B6B9FED0C3A04F0CDFB0A6B03F0F6
:10331000C1FF0A6B04F03EFB096B04F0C5FA816043
:10332000B0BD00BF004402580024744A20BCBE4B0C
:103330000024744C0090D00300000039B0B51C4943
:103340008B6A8A6ACC6ACD6BC2F30532B2B1C4F320
:10335000001404F0F7F815D0BBB90B689B0651BFF9
:103360009FED161A0B68C3F3C103154C42BF24FA34
:1033700003F301EE103AB8EE411A08E00021C0E96B
:10338000001112E09FED0C1A01E09FED0A1A8B6B01
:103390009FED0C3A04F087FB8A6B03F07BFF8A6B8E
:1033A00004F0F8FA896B04F07FFA8160B0BD00BFC9
:1033B000004402580024744A20BCBE4B0024744CC4
:1033C0000090D00300000039B0B51C498B6A8A6AAE
:1033D000CC6A4D6CC2F30552B2B1C4F3002404F0C0
:1033E000B1F815D0BBB90B689B0651BF9FED161AFB
:1033F0000B68C3F3C103154C42BF24FA03F301EE7B
:10340000103AB8EE411A08E00021C0E9001112E0BC
:103410009FED0C1A01E09FED0A1A0B6C9FED0C3A20
:1034200004F041FB0A6C03F035FF0A6C04F0B2FAB9
:10343000096C04F039FA8160B0BD00BF0044025845
:103440000024744A20BCBE4B0024744C0090D0036E
:1034500000000039F8B580F400220A4300F07F80B4
:1034600080F400720A4332D080F480620A4300F094
:10347000878080F400620A4338D080F480520A4387
:1034800000F08B8080F400520A4300F0948080F4B6
:1034900080420A4337D080F400420A4342D080F48D
:1034A00080320A434ED080F48070084340F0DF80C1
:1034B0008749086D00F00702042A00F2D880884886
:1034C000DFE812F0770087008E00D6009600804972
:1034D000086DC0F38212042A00F2C9808048DFE838
:1034E00012F0680078007F00C70087007849886D77
:1034F000C0F30262042A00F2BA807948DFE802F0E1
:10350000596970B878007248816DC1F3027105295C
:1035100000F2AD80DFE801F003869198A28DFFF7FD
:10352000B9FEA5E06A48016D01F04051B1F1005FBC
:1035300000F07880B1F1805F00F09680002940F0C3
:10354000968076E06248C16C0068C90340F18D80C6
:10355000000140F18C8001A8FFF7F0FEA1E05C487B
:10356000816D01F44031B1F5003F00F08880B1F584
:10357000803F00F09080002940F07980006829E0C9
:103580005349886DC0F34252042A00F270805448B7
:10359000DFE802F00F1F266E2E004D49086DC0F3C4
:1035A0000232042A63D84E48DFE802F003131A629D
:1035B0002200086859E04648016DC1F3024105291F
:1035C00055D8DFE801F0032F3A414B3600F096FD65
:1035D0004EE0086800014AD501A8FFF7AFFE05E0FC
:1035E0000868800043D501A8FFF7EEFE01983FE090
:1035F000C86C0B6810F04052086802D113F0040345
:1036000026D1B2F1805F02D110F4807051D10868E8
:1036100010F400301CBF47F64000C0F27D10B2F13C
:10362000005F52E00068000121D501A8FFF786FE87
:1036300023E000682749800313E00068800016D566
:1036400001A8FFF7C1FE18E0016849070FD500681F
:10365000C0F3C100214921FA00F009E000681E49C9
:10366000C00501EAE07003E00068800102D4002098
:1036700004B080BD01A8FFF719FE0298F8E7C16CFD
:103680000368026811F040510DD113F004030AD011
:10369000C2F3C100DEE700688000E8D501A8FFF7AB
:1036A00093FE0398E4E7B1F1805F04D112F48072D5
:1036B00001D00948DCE7006810F400301CBF47F671
:1036C0004000C0F27D10B1F1005F18BF0020CFE7CD
:1036D0000044025840787D0100093D000090D0036D
:1036E0000080BB002DE9F0470446C078A74F0007D3
:1036F0001CD5A06E4FEA3051032908D8DFE801F04D
:1037000002090C11F96941F40031F96109E001265F
:103710000DE003F048FF01E004F06BF8064630B915
:10372000A06E396C21F4401108433864002660789B
:10373000BA46C00701D1354620E0A06D04280BD859
:103740003546DFE800F0030C0F121200F869354629
:1037500040F40030F86108E0012501270FE003F094
:1037600064FE01E003F0CDFE05462F463DB9A06D95
:1037700003F04BFF21F0070103F09BFF3746607811
:1037800080071ED5E06D4FEAB010042807D8DFE8A7
:1037900000F003090C0F0F0003F09BFF08E0012568
:1037A00001260FE003F041FE01E003F0AAFE05460A
:1037B0002E463DB9E06D03F028FF21F4E07103F0DF
:1037C00078FF3E466078400702D4B046574623E073
:1037D000D4F8A80057464FEA7050042807D8DFE80D
:1037E00000F0030A0D10100003F05EFF09E0012550
:1037F0004FF0010810E003F018FE01E003F081FE35
:103800000546A84645B9D4F8A800B96C0025B046CD
:1038100021F460010843B8646078000720D5D4F82B
:10382000AC004FEA3060042807D8DFE800F0030955
:103830000C0F0F0003F038FF08E00125012710E00E
:1038400003F0F3FD01E003F05CFE05462F4645B9A9
:10385000D4F8AC0003F0B5FE21F0E06103F010FFF6
:103860004746E07880071DD5E06C4FEA301003280A
:1038700006D8DFE800F00B02080B03F02AFF05E092
:10388000012501260FE003F08EFE05462E4655B9B0
:10389000E06CDAF83C100025524621F03001084374
:1038A000CAF83C003E466078C0061ED5206E4FEA3E
:1038B0003030042807D8DFE800F003090C0F0F00B0
:1038C00003F007FF08E0012501270FE003F0ADFD3D
:1038D00001E003F016FE05462F463DB9206E03F0C9
:1038E00094FE21F4E04103F0E4FE37466078800660
:1038F0001BD5606E4FEA3040052807D8DFE800F09E
:103900000C03090C0C0C04F033F904E0012501262A
:103910000CE004F0FFF805462E463DB9606E03F05A
:1039200074FE21F4E02103F0C4FE3E4660784006B8
:103930001DD5D4F8B0004FEA3070052807D8DFE86D
:1039400000F00C03090C0C0C04F012F904E0012542
:1039500001270DE004F0DEF805462F4645B9D4F8FE
:10396000B00003F02EFE21F0E04103F089FE37465F
:103970006078000618D5206F68B1B0F1005F07D0FD
:10398000B0F1805F22D103F0A4FE04E0104402589D
:1039900004F0EEF805462E463DB9206F03F035FEE3
:1039A00021F0405103F085FE3E46E078C00702D189
:1039B000B04657461EE0A06C5746032809D8DFE8FA
:1039C00000F00F020C0F03F06FFE09E00125012645
:1039D000EBE701254FF001080CE003F0E4FD05469C
:1039E000A8463DB9A06CF96B0025B04621F0030153
:1039F0000843F863A078400601D4474616E0D7F89C
:103A0000F00340F48070C7F8F003FEF7F7FF0646B6
:103A1000D7F8F003C00507D4FEF7F0FF801B642839
:103A2000F6D90325032701E02F467DB12078C00792
:103A300047D0E06F4FEAF000052832D8DFE800F009
:103A400037033437373704F093F82FE0DAF8601093
:103A5000D4F8B4005546414011F4407F0BD0296E94
:103A60002A6E42F480322A6621F440712A6E22F4D2
:103A700080322A662966B0F5807F40F00382FEF727
:103A8000BDFF064641F288390327DAF86000800757
:103A900000F1F581FEF7B2FF801B03254845F4D9FC
:103AA000C4E7012501260DE004F034F805462E4652
:103AB00045B9E06F03F0D6FD21F038010843CAF89C
:103AC00044003E46207880071AD5A06F052807D805
:103AD000DFE800F00C03090C0C0C04F049F804E0DA
:103AE000012501270DE004F015F805462F4645B9DC
:103AF000A06F03F0B7FD21F007010843CAF84400A6
:103B00003746207840071BD5D4F89400052807D8FD
:103B1000DFE800F00C03090C0C0C04F029F804E0B9
:103B2000012501260DE003F0F5FF05462E4645B9B7
:103B3000D4F8940003F045FD21F0070103F0A0FD47
:103B40003E46207880061ED5D4F890004FEA3070AB
:103B5000052807D8DFE800F00C03090C0C0C03F073
:103B600064FC04E0012501270EE003F042FE054657
:103B70002F464DB9D4F8900003F074FD21F0E041D8
:103B80000843CAF844003746207840061DD5D4F8CB
:103B90009C004FEAB020052807D8DFE800F00C03AE
:103BA000090C0C0C03F041FC04E0012501260DE09A
:103BB00003F01FFE05462E4645B9D4F89C0003F0DD
:103BC00000FD21F4E05103F05BFD3E462078000645
:103BD0001DD5D4F8A0004FEA7030052807D8DFE8DB
:103BE00000F00C03090C0C0C03F01FFC04E0012591
:103BF00001270DE003F0FDFD05462F4645B9D4F839
:103C0000A00003F0DEFC21F4604103F039FD3746EB
:103C10002068010714D5D4F88410B1F5805F07D16E
:103C200003F0E7FD002818BF01272068D4F88410AE
:103C3000DAF84420534622F440521143CAF84410A3
:103C4000C10614D5D4F89810B1F5807F07D103F0E0
:103C5000D0FD002818BF01272068D4F89810DAF8A2
:103C60004820534622F440721143CAF8481000031A
:103C700018D5D4F8A400B0F5003F09D0B0F5803FC6
:103C800003D010BB03F0D1FB01E003F0B2FD054609
:103C90002E4645B9D4F8A40003F093FC21F440313A
:103CA00003F0EEFC3E46A07840071FD5D4F888000C
:103CB000B0F5401F0FD0B0F5001F09D0B0F5801F40
:103CC00040F0D88003F005FD05E001250126EAE774
:103CD00003F020FF05462F464DB9D4F8880003F0C5
:103CE000C1FC21F440110843CAF844003746A078CB
:103CF000C00701D13E4619E0206DB0F5803F03D0EA
:103D000090B903F0E6FC02E003F04DFC05462E46B8
:103D100065B9206DDAF83C100025524621F4803157
:103D20000843CAF83C00E5E7012501262168880020
:103D300001D4606806E003F05CFD002818BF01268E
:103D4000D4E900108A031BD5D4F880206FF001035A
:103D500003EB3223022B0BD34FEA322343B1012B67
:103D600040F08B80DAF81C3043F40033CAF81C3082
:103D70003DB9DAF8443023F440731A43CAF84420BA
:103D80003546CA0207D5626FDAF8403023F00043A7
:103D90001A43CAF84020CA0008D5D4F8B820DAF887
:103DA000003023F480431A43CAF800208A0207D562
:103DB000E26EDAF8403023F080731A43CAF84020EC
:103DC0004A000CD5DAF8002022F40042CAF800209C
:103DD000D4F8BC20DAF800301A43CAF80020B1F158
:103DE000FF3F07DC626DDAF83C3023F040531A43A2
:103DF000CAF83C20090208D5D4F88C10DAF844201F
:103E000022F440021143CAF84410C10705D003F060
:103E10000CFB002818BF05466068810705D503F034
:103E2000A7FE002818BF05466068410705D503F0C6
:103E3000BAFB002818BF05466068010705D503F0E6
:103E400060FB002818BF05466068C10605D503F071
:103E500061FE002818BF05466068800604D503F09F
:103E6000C8FC002818BF0125002D18BF01252846D1
:103E7000BDE8F0870125012739E7012581E755468F
:103E8000D4F8B4002A68094900F4407322F47C5243
:103E900001EA1011B3F5407F6FF31F3008BF0A43EA
:103EA0002A60296E084328660025A6E5CFFFFF009B
:103EB0002DE9F843002800F0FB807F4D044688463A
:103EC000286800F00F0088420BD2286820F00F000D
:103ED00040EA08002860286800F00F00404540F0E4
:103EE000E7802068C64F410709D52169BA6903F008
:103EF000D7FC04D9BA6922F070021143B9610107F5
:103F000009D56169FA6903F0CBFC04D9FA6922F09A
:103F100070021143F961C1060AD5A169FA6902F478
:103F2000E062914204D9FA6922F4E0621143F96136
:103F3000810609D5E1693A6A03F0B2FC04D93A6A0C
:103F400022F070021143396210F002010AD0E268D7
:103F5000BB6903F00F039A4204D9BB6923F00F0336
:103F60001A43BA61C2073AD0D4E90101BA6922F40E
:103F700070621143B961012807D0032809D00228D3
:103F80000BD1396889030CD492E03968C90508D48B
:103F90008EE03968890104D48AE03968490740F124
:103FA00087803969A94621F0070108433861FEF787
:103FB00025FD064641F288356068396901F038010F
:103FC000B1EBC00F07D0FEF719FD801BA842F3D953
:103FD0000320BDE8F88320684D4600F0020151B18E
:103FE000E168BA6902F00F02914204D2BA6922F084
:103FF0000F021143B961296801F00F0141450AD947
:10400000296821F00F0141EA08012960296801F0BF
:104010000F0141454CD1410709D52169BA6903F027
:104020003FFC04D2BA6922F070021143B961010762
:1040300009D56169FA6903F033FC04D2FA6922F008
:1040400070021143F961C1060AD5A169FA6902F447
:10405000E062914204D2FA6922F4E0621143F9610C
:1040600080060AD5E069396A01F07001884204D2FD
:10407000396A21F070010843386200F057F8B969D5
:10408000294A1C4BC1F30321515C01F01F01C840B8
:10409000B969186001F00F01515C01F01F01C840BF
:1040A0001549086005480068BDE8F843FEF70ABFF7
:1040B0000120BDE8F88300BF002000523C0000242E
:1040C00080B500F033F80A49174B0A68096801F017
:1040D0000F01C2F30322595C9A5C01F01F0102F048
:1040E0001F02D040034A1060C8400349086080BDE9
:1040F00018440258400000244400002480B5FFF713
:10410000DFFF0849084A0968C1F3021103F03DBC0A
:1041100080B5FFF7D5FF0349034A0968C1F30221BF
:1041200003F033BC1C440258B0D2000810B5344927
:104130000869C0F3C20003280FD0022804BF324828
:1041400010BD40B908688006334858D50968C1F3E6
:10415000C101C84010BD2B4810BD8A6A886ACB6A6D
:104160004C6BC0F30510F0B103F00103C4F3CC04B1
:1041700002F003026343022A00EE103AB8EE400A4E
:1041800013D0AAB90A68920651BF9FED221A0A6895
:10419000C2F3C102204B42BF23FA02F201EE102A01
:1041A000B8EE411A06E0002010BD9FED191A01E09B
:1041B0009FED161A0A6B9FED193A6FF35F2202EE1C
:1041C000102AB8EE422A00EE032AB7EE000A32EEB9
:1041D000000A02EE100A086BC0F34620B8EE422A2D
:1041E000013081EE021A21EE000A01EE100AB8EE4B
:1041F000411A80EE010ABCEEC00A10EE100A10BD92
:104200000044025800093D0040787D010024744AB2
:1042100020BCBE4B0024744C0090D0030000003939
:10422000F8B5002800F03F8104460078D74EC0075B
:104230001FD12078800740F19C80306910F0380150
:10424000B06A35D0182901D1800731D03068E168D3
:10425000002955D020F01900084303F018F805464E
:10426000306840073BD4FEF7C9FB401B0228F7D952
:1042700051E1306900F03801B06A102905D01829E1
:104280000AD100F00300022806D130688003D0D59F
:1042900060680028CDD106E1606800283ED0B0F506
:1042A000A02F4BD0B0F5803F4CD003F00AFA4CE081
:1042B000E0683168490702D5002800F0F4803168D1
:1042C00021F01901084302F0E2FF0546306840077B
:1042D00005D4FEF793FB03F0A4F8F7D9F8BDFEF779
:1042E00087FB41F2030188423CD82069716821F4C0
:1042F0007C31402814BF41EA003041F4003037E0FF
:1043000020F0010002F0C3FF05463068400730D5B9
:10431000FEF774FB03F085F8F7D9DFE703F0D1F976
:1043200002F0B5FF0546306880037FF582AFFEF7E7
:1043300065FB411B03206429F5D9CFE7306840F4C1
:1043400080203060306840F4803002F0A0FF0546E5
:10435000306880033FF56DAFFEF750FB401B6428CB
:10436000F6D9D8E02069716821F0FE4141EA006089
:1043700070602078C0063ED5306900F03801B06A20
:10438000082905D018291CD100F00300012818D1F4
:104390003068C00503D5E069802840F08480FEF7CE
:1043A00027FB41F2030188421ED8206A716821F080
:1043B000F841202814BF41EA806041F080407060DD
:1043C00019E03068E169002900F0D08040F08000F9
:1043D00002F05DFF05463068C005E0D4FEF70EFB35
:1043E00003F01FF8F7D979E7206AF16821F07C51D2
:1043F00041EA0060F0602078000756D420788006FB
:1044000065D42078400774D4676A002F49D030699A
:1044100000F03800182840F0BB80B16A306B012FE3
:1044200041D0A26A01F0030393423CD1E26AC1F396
:104430000511914237D10146226B6FF35F21013A9A
:10444000914230D1626BC0F34621013A91422AD1A8
:10445000A26BC0F30641013A914224D1E16BC0F353
:104460000660013988421ED1A06C716BC1F3CC018A
:10447000884216D0F06A20F00100F062FEF7BEFA22
:104480000546FEF7BBFAA842FBD0706B4FF6F871F9
:104490008843A16C40EAC1007063F06A40F00100FB
:1044A000F0620020F8BD0120F8BD706F6169A1B312
:1044B00040F001007067FEF7A1FA0546706F8007B3
:1044C0009CD4FEF79BFA401B0228F7D923E0306802
:1044D000A169E1B340F4805002F0D9FE054630688E
:1044E00080043FF58EAFFEF789FA401B0228F6D90B
:1044F00011E0D6F8000440F48070C6F80004FEF71E
:104500007DFA0546D6F80004C00516D4FEF776FA03
:10451000401B6428F6D90320F8BD20F00100706725
:10452000FEF76CFA0546706F80077FF567AFFEF700
:1045300065FA02F076FFF6D9D0E6A068002842D0EE
:10454000052853D0012855D003F04BF955E020F44D
:10455000805002F09CFE0546306880047FF551AF24
:10456000FEF74CFA02F05DFFF6D9B7E620F08000C6
:1045700002F08DFE05463068C0057FF53CAFFEF7C2
:104580003DFA02F04EFFF6D9A8E600BF00440258FB
:10459000306820F0807002F07AFE0546022F08D1C4
:1045A000306880013AD5FEF729FA02F03AFFF7D9D0
:1045B00094E6306880017FF574AFFEF71FFA02F0D1
:1045C00030FFF6D98AE603F00CF93067FEF716FAE9
:1045D000054641F28837306F80077FF515AFFEF74B
:1045E0000DFA411B0320B942F5D977E6306F40F050
:1045F00004003067306F40F001003067FEF7FEF9CD
:10460000054641F28837306F80073FF5FDAEFEF773
:10461000F5F9411B0320B942F5D95FE604F12805FD
:10462000B06A40F2F33188432ECD0843591E40EA68
:104630000210B0626FF35F214FF4FE024FF47E4030
:1046400000EB452080B20844A16B02EB01414FF022
:10465000FE4201F4FE010844E16B02EB016101F04E
:10466000FE41084430634FF6F871F06A20F0010013
:10467000F062706B8843A16C40EAC1007063206CEB
:10468000F16A21F00C010843F062F06A616C20F0DD
:1046900002000843F062F06A40F48030F062F06A91
:1046A00040F40030F062F06A40F48020F062F06A7A
:1046B00040F00100F062306840F0807002F0E7FDE9
:1046C0000446306880013FF5ECAEFEF797F9011B18
:1046D00003200229F5D901E670B5E8B3044690F845
:1046E000210028B9002084F82000204600F038F886
:1046F000022084F821002068C168C90627D4CA2195
:10470000416203F0E4F9F0B994E80F00134E8568B4
:104710003540856025692943A56929438568294372
:10472000816043EA0241016102F060FF58B92068EC
:104730006169E2691143C36C23F00303C364C26C73
:104740001143C164002002F033FF00D070BD01208E
:1047500084F82100002070BD012070BDBFFF8FFFD5
:1047600010B5B0B004466846B8210830FBF708FE23
:1047700020680C49884212D1002001904FF480003B
:1047800000904FF400702D906846FEF7ABFF08B123
:10479000FCF7C7FB0448016841F40041016030B0F8
:1047A00010BD00BF00400058704402582DE9F04190
:1047B00002F04FFE3ED084F82100012084F8200052
:1047C00032B16878E978AE78000240EA014714E037
:1047D0006E78F00604D506F0EF0000F10A066E7060
:1047E000E878DFF8F480C04707463046C04700024B
:1047F00040EA0747A878C04706462068CA214162B8
:104800005321416220462D7803F0A2FA48B947EAC5
:104810000600216820F0C00040EA4530486002F000
:10482000E5FE02F0C5FE02D1012184F8211000212D
:1048300084F82010BDE8F0812DE9F04102F009FE76
:1048400047D084F82100CA21164620684162012120
:1048500084F8201003F03BF990BB2768B86800F09B
:1048600040001EB198B90020E87012E008B900209D
:10487000E8702878DFF86080C04706466878C0474F
:1048800003F054F9E978304440EA815009E0E878CF
:1048900080056A782978AB78120242EA014119440E
:1048A00008430E4908403860B86820F48020B8609A
:1048B000D5E903010843B9680843B86002F096FEE1
:1048C00002F076FE02D1012184F82110002184F843
:1048D0002010BDE8F08100BF2D7D00087F7F7F00A4
:1048E000B0B5044600680949C160FEF787F805467F
:1048F0002068C068800606D4FEF780F803F063F8ED
:10490000F6D90320B0BD0020B0BD00BF5FFF03009B
:10491000704770477047704708B3B0B5044690F8C9
:104920002C000D4628B9002084F82D00204600F008
:104930001BF8022084F82C00211D2068FCF716FBD0
:10494000D4E900022946FCF76DFB0648016841F0F6
:1049500000410160012084F82C000020B0BD01203E
:10496000704700BF004000522DE9F047B8B033A8AF
:104970001421FBF705FD35480178002962D101219A
:10498000017002AC04F10800B821FBF7F9FC4FF00C
:10499000807002904FF00008CDF80C80CDF8508068
:1049A0002046FEF79FFE08B1FCF7BBFA28484FF0FF
:1049B0000C094FF0030A0227264C274E016841F4E8
:1049C00080510160006800F480500190CDF8DC90C7
:1049D000CDE9358A34974FF63F003390019833ADD7
:1049E00004F500602946B047CDF8DC9034A829468C
:1049F00080E880052C20339004F58050B047CDF836
:104A0000DC9034A8294680E8800548F237103390BE
:104A100004F54060B047CDF8DC9034A8294680E822
:104A200080054FF68370339004F58060B047CDF871
:104A3000DC9034A8294680E880054CF2037033905E
:104A40002046B04738B0BDE8F08700BF2001002401
:104A5000D4440258000C025851280008B0B505464D
:104A600002F0DEFE01D102240DE095F82C000124B5
:104A7000012808D1022085F82C002868FCF7B5FA37
:104A800085F82C4000242046B0BDB0B5044690F80F
:104A90002C000D46052803D0022812D001280FD182
:104AA000022084F82C0029462068FCF7A7FA286821
:104AB00002280CBF0520012084F82C000020B0BD86
:104AC0000120B0BD2DE9FF41044603200D4684F8C6
:104AD0003000A06B03280BD14FF08050616BAD4EBE
:104AE00008436063606B00B320688663012577E04C
:104AF000002D40D0B5F5004FEED0B5F5804F4BD12D
:104B000002F00EFD80014AD402A9204603F096FE71
:104B10000028E3D19DF80E0040073AD502F091FE3F
:104B20000028DBD12068022172E04FF480300021A0
:104B3000FEF790FCD8B13849D4E904C7B0FBF1F3D3
:104B40008846D4E901129F4243D2B646A66DB6F517
:104B5000007F3DD0B6F5807F24D1304B67B37E0017
:104B6000B0FBF6F6464588BFB0FBF3F730E002F045
:104B7000CDFD6063BAE702F0D3FC80010FD402A937
:104B8000204603F05BFE0028A8D19DF80E00C00768
:104B900037D14FF08060A1E74FF000609EE74FF4FF
:104BA00000609BE77FB17E00B0FBF6F01C4EB04288
:104BB000764688BF1F460CE000277646404588BFF2
:104BC000B0FBF3F705E0164EB04298BF00231F4636
:104BD000764620682B46CDE900C703F0E9FC0025A6
:104BE000206802F083FE28B1216801258E63616B85
:104BF00008436063012084F83000284604B0BDE813
:104C0000F08102F01EFE00287FF468AF20680021CA
:104C100003F02EFA62E700BF80F0FA0200E1F5052A
:104C200040787D0170470000B0B5D0E91742836B32
:104C3000A50F0D70C4F383654D70C4F301658D70CD
:104C4000250CCD70250A0D714C71140DCC80C2F36A
:104C500003440C72C2F3C0344C72C2F380348C72C1
:104C6000C2F34034CC72C2F300340C7300244C7392
:104C7000012B30D0002B40F0818040F6FC730125E1
:104C800003EA8202436E42EA93720A61426EC2F301
:104C9000C2630B75C2F302634B75C2F342538B754B
:104CA000C2F38243CB75C2F3C2330B764FF4007369
:104CB00043650B690C7E013304F007040234A34002
:104CC00083640C7A04F00F0405FA04F4C464640AE3
:104CD0006343036512E002F03F02B0F8663043EA36
:104CE00002420A614FF480634FF400724265C2646D
:104CF0000A6903EB822202658264426EC2F380334A
:104D00004B76C2F3C6138B7602F07F02CA76806EB2
:104D1000C20F0A77C0F341724A77C0F30043C0F371
:104D200082628A77C0F38352CA77C0F3405281F817
:104D30002020002281F8212081F82230C0F3C033E6
:104D400081F82330C0F3803381F82430C0F340333E
:104D500081F82530C0F3003381F82630C0F3812379
:104D600081F82730C0F30123C0B281F82830400811
:104D700081F82900012081F82A0009E00168764ABB
:104D80008A630122416B41F08051416380F83020F9
:104D90001046B0BDFF0FE01FB0B500F138053CCDA7
:104DA00081E83C00826C0A61C26C4A61026D406D10
:104DB000C8618A610020B0BD10B504460068616C0E
:104DC000090403F016FA20B1616B08436063002008
:104DD00010BD206802F0D9FCC0F3432010BD0000D4
:104DE0002DE9F04397B0044690F83000032801D134
:104DF00001253DE00D46FDF701FE8046206802F0EA
:104E0000C4FC8001544E20D42068402103F01DF9D9
:104E1000B8B902F016FDA0B9012016900020159037
:104E20000220149060201390402012904FF0FF3029
:104E30001190206811A903F069FA206803F001FAC3
:104E4000D0B10146606B606301E04FF400612068FF
:104E500001258663626B1143616384F8305002F070
:104E600045FD28B1216801258E63606384F83050C8
:104E7000284617B0BDE8F08301AFB1462068426B09
:104E8000416B12F4957F14D1080409D50026202E19
:104E900004D002F096FCB8510436F8E737444E4689
:104EA000FDF7ACFDA0EB08004FF000410130E5D16B
:104EB000CDE7090714D4416B890713D4416B8906E8
:104EC00012D4416BC90411D503F088FB3860FDF79B
:104ED00095FDA0EB080001303AD020680437F0E7D8
:104EE0000821B4E70221B2E72021B0E792498163AB
:104EF000DDE9011CDDE90336CFB2BA092A70C7F338
:104F000040126A706FF0FF0202EA112747EA11614E
:104F100069809CFA8CF169602B72190A6972C3F37B
:104F20000351A97202EA1341F2B21144A981C6F3F6
:104F30008521A973C6F30121E9731109297406F0CB
:104F40000F0169744E469DF81710A974002586E775
:104F50004FF000417BE700BFFF0FE01FF8B50446AC
:104F60000068E56A416B090402D5290700F18080D9
:104F7000416BC90552D4416B490402D5290700F1A0
:104F8000B080426B416B12F03A0F00F097808907B6
:104F900003D5616B41F002016163416B090703D5E1
:104FA000616B41F008016163416B890603D5616B58
:104FB00041F020016163416BC90603D5616B41F08B
:104FC000100161635C498163C16B21F49D7102F042
:104FD000B2FDC16A41F40051C162C16841F0800173
:104FE000C16003F043F92168626B10436063C868D5
:104FF00020F08000C8604FF40060886328077DD4EB
:10500000280634D5606B90B3C86B20F08050C8631D
:1050100000200865012084F8300074E04FF48071AE
:1050200081634CF23A12C16B9143C163C16B21F0B1
:10503000805102F080FD290727D4290617D50026C4
:105040008662C662066515F0220F04D003F00EF9E1
:1050500008B102F0CEFA012084F83000E66215F0C3
:10506000300F02D0204600F097FAA8071CD1F8BDF7
:10507000A06A2028FBD3656A0026AF19202E18D01D
:1050800002F09FFB02F079FAF7E715F0220F04D047
:1050900003F0ECF808B102F0ACFA2068264902F0FF
:1050A0006CFDE062A80733D02046BDE8F84000F070
:1050B00071BAA06A67622038A062F8BDC900D6D56F
:1050C0004FF080518163006D05F02001400729D425
:1050D00020460029BDE8F84018BFFFF71CBCFFF7C9
:1050E00018BC206A2028C2D3E66900276D46F01953
:1050F000202F12D002F0B7F90437F8E7012084F826
:1051000030000020E0622046BDE8F840FFF78ABD8D
:105110002046BDE8F84000F03FBAE061206A203840
:105120002062F8BD20460029BDE8F84018BFFFF70F
:10513000F1BBFFF7EDBB00BF3A0F0018B0B586B06A
:1051400048B3044690F8300020B90020207620466D
:1051500000F06AF9042084F83000204600F036F8A8
:10516000C8B901A92046FFF73BFEA0B9A26B9DF884
:1051700014009DF81510012A06D108430CBF4FF406
:1051800080704FF4007000E00020A065E1682046C8
:10519000FFF798FC10B1012006B0B0BDFDF72EFC62
:1051A00005462046FFF708FE042807D0FDF726FC39
:1051B000401B0130F5D102F06BFAEDE7002060638F
:1051C000E062012184F83010E6E700002DE9F043A9
:1051D0008FB081464FF4803000210024FEF73AF969
:1051E000B0B38D4F0546002100220023B0FBF7F637
:1051F000D9F80000CDE9004603F0DAF9D9F800004B
:1052000003F0E6F9BD4202D37000B5FBF0F5834828
:10521000B0FBF5F00130FDF7DBFA00200490D9F87F
:10522000000002F035FF08BBD9F8000002F056FF7D
:10523000B0F1004F12D10020C9F83C00D9F80000AD
:1052400002F026FF90B9D9F83C00012809D019E0F6
:10525000012189F830104FF000600DE00120C9F8FD
:105260003C0002F08DFA68B14FF08050012189F8BE
:105270003010D9F834201043C9F8340008460FB074
:10528000BDE8F08300214FF6FE76664D0020049ABB
:10529000B8B9B24215D802F073FA0028E6D1D9F8AD
:1052A0000000294602F0C1FE0028DDD1D9F8000037
:1052B00002F06BFA049901310491C0F38071C00FC0
:1052C000E5E704984FF6FF72904202D34FF08070EA
:1052D000CCE70020C9F83810ADF80E00FDF78EFBC2
:1052E0000546D9F8000003F05BF998B1D9F8380009
:1052F000032812D1D9F80000042103F055F9000D5C
:10530000C9F8400004A94846FFF78EFCE0B34FF00F
:10531000805040E04FF080603DE0D9F8000002F09E
:1053200027FFC0BBD9F80000DFF8F4800021C04798
:10533000C9F86C00D9F800000421C047C9F8700012
:10534000D9F800000821C047C9F87400D9F8000056
:105350000C21C047C9F87800D9F838000328C9D013
:1053600000210DF10E0641F2873759BBD9F8000034
:10537000314602F051FF70B9FDF740FB401BB842C7
:1053800046D8BDF80E10F0E7D9F84410D9F800005F
:10539000090402F0DAFE00287FF468AFD9F80000B3
:1053A00002F0A4FA60B1D9F80010A24A8A63D9F8D1
:1053B000341008430121C9F8340089F830105DE742
:1053C00000215BE7D9F83800032893D0C9F84410CE
:1053D000D9F80000090402F0E1FE0028DBD1D9F879
:1053E00000000021C047C9F85C00D9F80000042182
:1053F000C047C9F86000D9F800000821C047C9F8C3
:105400006400D9F800000C21C047C9F8680071E7B2
:105410004FF00040BFE700BF00350C001021010035
:10542000A9850008000010C12DE9F043B7B004467B
:1054300032A81421FAF7A4FF02A8B8210830FAF71D
:105440009FFF20682A4988424FD14FF480304FF0A7
:105450000008CDF80C800290CDF8588002A8FEF725
:1054600041F908B1FBF75DFD22484FF00C09032616
:105470000227214C016841F480310160016801F488
:10548000803101910199C16841F00401C160C16896
:1054900001F0040101910199C16841F00801C16066
:1054A000C06800F0080001900198CDF8D890CDE9CF
:1054B000348633974FF4F850329032AD2046294667
:1054C000FDF7C6F9042032902946CDE93569CDE9CA
:1054D000337804F58060FDF7BBF93120002100220C
:1054E000FDF78AFE3120FDF779FE37B0BDE8F08385
:1054F00000700052D4440258000802582DE9F041CF
:1055000086B0044641B102F0D8F80AD102F0B6FAEA
:1055100009D902F066FA01E002F0F8F860630120B0
:1055200035E0022033E002F090F8676272022068F2
:10553000D4F83880C162CDE9041102210391A2623E
:10554000902102914FF0FF31CDE90012694602F03F
:10555000DDFE02F0C1FAB8F1010F18BF6D02022E94
:1055600005D38221E162294602F0C9FD04E08121D0
:10557000E162294602F0D6FD216818B12D4A01F0FA
:10558000CBFE04E0C86B40F49570C863002006B001
:10559000BDE8F081FBF788BAFBF7B8BA2DE9F04314
:1055A00087B0044641B102F088F80AD102F066FAE9
:1055B00009D902F016FA01E002F0A8F860630120B0
:1055C00034E0022032E002F040F8E76172024FF06E
:1055D00090082068D4F83890C1620691CDE9041192
:1055E0004FF0FF312262CDF80C80CDE9011201A904
:1055F00002F08CFE02F070FAB9F1010F18BF6D02D3
:10560000022E03D3A02101F0D8FF04E02946C4F8FC
:105610002C8002F068FE216818B1064A01F07CFE79
:1056200004E0C86B40F48D70C863002007B0BDE88B
:10563000F08300BFFF0FE01F2DE9F84338B30446A5
:105640000020B049A0622068884208D0AE4A90424B
:1056500005D0AE4A904202D0E2680F2A17D8E2681D
:10566000E36B0125083205EB5313D2085A438842F5
:105670000BD0A649884208D0A34B984218BF082AED
:1056800005D8884218BF984204D1102A02D90120B7
:10569000BDE8F88394F8811029B902F001F820469A
:1056A00000F07CF82068022184F8811002F070F884
:1056B000D4F818806168836803F4F81CB8F1806F2F
:1056C00010D139B1B1F5800F0CD1A56B35B14FF4C4
:1056D00080010EE0A56BB5F1805F5DD1056845F4F2
:1056E000805505604D0204D4D4F80C904FF0010EA3
:1056F0000EE0D4F80C90B9F1070F07D3256D0768B9
:105700004FF0000E27F480772F4304E04FF0000E97
:10571000076827F480770760E269A66AA768D4E97A
:10572000043542EA0C023243E66B324342EA090294
:10573000826041EA0802666B3243666A3243A66BB6
:1057400032431A43236A2A431A43D4E912352A43BF
:105750003A431A43A36D1A43C26049B981680122D2
:1057600062F3CC2181600222816862F34A21816068
:10577000016DBEF1000F21F00101016505D1616DE0
:10578000C26822F000421143C16001F070FF0121A4
:1057900084F88110BDE8F8830021A5E72DE9F043E6
:1057A000B7B0044632A81421FAF7EAFD02A8C021D6
:1057B000FAF7E6FD20685349884223D052498842CF
:1057C00058D05249884240F09A8002F0A7F802A8C7
:1057D000FDF788FF08B1FBF7A4FB4D48016941F4D0
:1057E00080510161016901F4805101F0B6FFCDE9FA
:1057F0003444484C0520369002203390F0203290FB
:10580000019878E002F08AF802A8FDF76BFF08B172
:10581000FBF787FB3E483F4F05250226816841F490
:1058200080418160816801F48041019101990168A2
:1058300041F004010160016801F0040102F0E6F8A2
:10584000006800F00200019001983695CDE93444DB
:1058500033960620329032A907F50060FCF7F8FF76
:105860004FF4A050CDE93545CDE93364329007F5CA
:10587000806440E04FF480500027039702901A970D
:1058800002A8FDF72FFF08B1FBF74BFB20484FF0B4
:105890000208816841F400418160816801F400419F
:1058A00002F0B4F8016801F0020101F056FF01981E
:1058B000CDE93477CDF8CC800720369004203290A3
:1058C00032AE1448314600F5806481462046FCF72C
:1058D000BFFF4FF40040329031460625CDE93575C3
:1058E000CDE933874846FCF7B3FF1820CDE935757D
:1058F000CDE93387329032A92046FCF7A9FF37B0B3
:10590000BDE8F08300380040003C0040003001401A
:10591000E044025800000258411E0020B0EB116F15
:1059200001D001207047044AF023516003490B70F5
:10593000906007211160704710E000E023ED00E067
:1059400090F88410012901D1022112E02421C0F82D
:10595000881001680A680B6823F001030B6022F0CD
:1059600000520A600021416680F884102022C0F8AD
:1059700088200846704710B502F089F81CBF022045
:1059800010BDA1B1012032B1E066002020672046A1
:1059900003F082FE00B110BDE06E012807D120683F
:1059A0001021016201F0C1FE03D02068FAE7012056
:1059B00010BD002010BD000010B5084A904218BF6D
:1059C00010BD074C204600F025FD044821464FF449
:1059D0000072BDE81040FFF7CEBF00BFB40C00243A
:1059E000C80100247047B0B501F034FF04BF0220A5
:1059F000B0BD01F0A5FC22F0606201F0FAFF01F0F9
:105A00004DBDB0B501F026FF04BF0220B0BD01F0CE
:105A100097FC22F0604201F0ECFF01F03FBD7047BF
:105A20007047704770B50446006840F60F05C269BC
:105A3000016883682A426AD0A74D01EA0506A74D8E
:105A40001D4076196DD0D60709D0CE0507D50126A1
:105A50000662D4F8906046F00106C4F8906096079C
:105A600009D5DE0707D002260662D4F8906046F01A
:105A70000406C4F89060560709D5DE0707D004264F
:105A80000662D4F8906046F00206C4F890601607EB
:105A90000BD501F02006354307D008250562D4F860
:105AA000905045F00805C4F8905015050AD54D01F1
:105AB00008D54FF400650562D4F8905045F02005F4
:105AC000C4F89050D4F89050002D6DD092060AD5AD
:105AD00001F0200103F08052891804D0616F11B1E8
